001800460220160600137953700000004288000002139229785254000000007709788241RICARDO SALAS                                     
11100000103100005232110000000010000000238741251113000000000001147891                                                                                                                                                                                                        
11100000304500000734610000000099000000059678836383000000000090289625                                                                                                                                                                                                        
11200000304500000855990000000213000000207002121631000000000366045660                                                                                                                                                                                                        
12100000303500000027870000000000000000000021615600000000000000000000                                                                                                                                                                                                        
12100000303800000901120000000049000000002596762900000000000001237138                                                                                                                                                                                                        
12100000303900003413090000000000000000033919148834000000000000000000                                                                                                                                                                                                        
12100000304000000729980000000000000000491300485438000000000000000000                                                                                                                                                                                                        
12100000304200002689400000000000000000004051046368000000000000000000                                                                                                                                                                                                        
12100000304300000357640000000071000000100388592744000000001230128405                                                                                                                                                                                                        
12100000304400035600600000000000000000301317864712000000000000000000                                                                                                                                                                                                        
12200000303100000065630000000193000000016586250136000000000075005734                                                                                                                                                                                                        
12200000303800000088580000000482000000000807080026000000000008369205                                                                                                                                                                                                        
12200000304300000112290000000663000000003629735707000000000066387380                                                                                                                                                                                                        
12200000304400001670530000000000000000172232020303000000000000000000                                                                                                                                                                                                        
13100000204500006046720000000000000000014863597944000000000000000000                                                                                                                                                                                                        
15000000204300000046350000000201000000284634291315000000005822628203                                                                                                                                                                                                        
32000000103200051592020000000839000000166744565000000000000028049000                                                                                                                                                                                                        
32000000103500015966010000000000000000023523426500000000000000000000                                                                                                                                                                                                        
32000000303600010632300000001468000000010906949100000000000020500000                                                                                                                                                                                                        
33000000103100000329740000000000000000004934620400000000000000000000                                                                                                                                                                                                        
33000000103200000630750000000000000000001036234800000000000000000000                                                                                                                                                                                                        
33000000103600000230370000000000000000000313288300000000000000000000                                                                                                                                                                                                        
