001800460220140900117679180000003455000002252801308952000000011217484777RICARDO SALAS                                     
11100000103100006341920000000020000000312938087828000000000003336534                                                                                                                                                                                                        
11100000304500000845930000000054000000089320673293000000000084563506                                                                                                                                                                                                        
11200000304500001151190000000235000000245896909552000000000600755813                                                                                                                                                                                                        
12100000303500000048490000000000000000000042340300000000000000000000                                                                                                                                                                                                        
12100000303800000922970000000028000000001830882454000000000000482217                                                                                                                                                                                                        
12100000303900003453530000000000000000030064288993000000000000000000                                                                                                                                                                                                        
12100000304000000663920000000000000000455900870659000000000000000000                                                                                                                                                                                                        
12100000304300000327350000000149000000144362841955000000008134232687                                                                                                                                                                                                        
12100000304400030574670000000000000000283975158085000000000000000000                                                                                                                                                                                                        
12200000303100000063240000000173000000013035137501000000000069830645                                                                                                                                                                                                        
12200000303800000064530000000465000000000495821108000000000008075374                                                                                                                                                                                                        
12200000304300000088510000000657000000002207592027000000000050111256                                                                                                                                                                                                        
12200000304400001369720000000000000000142612329464000000000000000000                                                                                                                                                                                                        
13100000204500006386250000000000000000014093378123000000000000000000                                                                                                                                                                                                        
15000000204300000058590000000188000000351824591410000000002238813645                                                                                                                                                                                                        
32000000103200047869450000000666000000139377729000000000000017835000                                                                                                                                                                                                        
32000000103500008373250000000000000000012836555800000000000000000000                                                                                                                                                                                                        
32000000303600008686530000000820000000009048607300000000000009448100                                                                                                                                                                                                        
33000000103100000136660000000000000000002510983300000000000000000000                                                                                                                                                                                                        
33000000103200000158220000000000000000000259226900000000000000000000                                                                                                                                                                                                        
33000000303600000094260000000000000000000167303900000000000000000000                                                                                                                                                                                                        
