00180046012013020000000743000000000000000021610000000000045039830000000000000000000000000000RICARDO SALAS                                     
11000011010000000272                                                                                                                                                                                                        
11000012010000000471                                                                                                                                                                                                        
21000011010000000748                                                                                                                                                                                                        
21000012010000001413                                                                                                                                                                                                        
31000013020000000160                                                                                                                                                                                                        
31000014020000062247                                                                                                                                                                                                        
32000013020002259640                                                                                                                                                                                                        
32000014020002181936                                                                                                                                                                                                        
