001800460220160200129359870000004347000002730621259153000000004613491949RICARDO SALAS                                     
11100000103100004831260000000075000000273449470780000000000006924825                                                                                                                                                                                                        
11100000304500000705350000000037000000086004414945000000000057685159                                                                                                                                                                                                        
11200000304500000868610000000192000000283186057292000000000347195560                                                                                                                                                                                                        
12100000303500000026290000000000000000000020988300000000000000000000                                                                                                                                                                                                        
12100000303800000947800000000036000000002608529900000000000001159022                                                                                                                                                                                                        
12100000303900003149920000000000000000030606701744000000000000000000                                                                                                                                                                                                        
12100000304000000514050000000000000000687350974727000000000000000000                                                                                                                                                                                                        
12100000304200003943600000000000000000002836790303000000000000000000                                                                                                                                                                                                        
12100000304300000130350000000050000000145705201011000000001210956974                                                                                                                                                                                                        
12100000304400025339770000000000000000309800648413000000000000000000                                                                                                                                                                                                        
12200000303100000064350000000228000000015078625777000000000099773239                                                                                                                                                                                                        
12200000303800000085830000000483000000000804557924000000000008529722                                                                                                                                                                                                        
12200000304300000087340000000863000000002997992809000000000088467548                                                                                                                                                                                                        
12200000304400000889810000000000000000131569180550000000000000000000                                                                                                                                                                                                        
13100000204500007004890000000000000000017846089996000000000000000000                                                                                                                                                                                                        
15000000204300000040680000000222000000519512316311000000002747929465                                                                                                                                                                                                        
32000000103200052193740000000610000000178733872000000000000021256000                                                                                                                                                                                                        
32000000103500015624430000000000000000023852350900000000000000000000                                                                                                                                                                                                        
32000000303600011854680000001551000000013140447539000000000023614435                                                                                                                                                                                                        
33000000103100000272260000000000000000004427858600000000000000000000                                                                                                                                                                                                        
33000000103200000565420000000000000000000774080632000000000000000000                                                                                                                                                                                                        
33000000103600000219440000000000000000000314108700000000000000000000                                                                                                                                                                                                        
