001800460220131100085342500000002539000001948819985485000000015886667904RICARDO SALAS                                     
11100000103100006442820000000048000000318934085971000000000058855470                                                                                                                                                                                                        
11100000304500000876060000000093000000093827210624000000000170577029                                                                                                                                                                                                        
11200000304500000984840000000238000000230732434836000000000463059415                                                                                                                                                                                                        
12100000303800000656350000000027000000000834882788000000000000875832                                                                                                                                                                                                        
12100000303900003239030000000000000000026388306507000000000000000000                                                                                                                                                                                                        
12100000304000000544290000000000000000367229696045000000000000000000                                                                                                                                                                                                        
12100000304300000214070000000164000000095527800048000000002117451879                                                                                                                                                                                                        
12100000304400021796180000000000000000223206353816000000000000000000                                                                                                                                                                                                        
12200000303100000038610000000149000000003861812218000000000044974273                                                                                                                                                                                                        
12200000303800000048340000000323000000000371431757000000000006378158                                                                                                                                                                                                        
12200000304300000078240000000786000000001697383665000000000081749355                                                                                                                                                                                                        
12200000304400000124700000000000000000132732715114000000000000000000                                                                                                                                                                                                        
13100000204500005913620000000000000000013346859100000000000000000000                                                                                                                                                                                                        
15000000204300000051120000000175000000313284066499000000012929951493                                                                                                                                                                                                        
31000000103200000002770000000000000000000010915900000000000000000000                                                                                                                                                                                                        
32000000103200041664430000000536000000120298436100000000000012795000                                                                                                                                                                                                        
32000000103500002638050000000000000000006502562430000000000000000000                                                                                                                                                                                                        
32000000303500000028980000000000000000000033032067000000000000000000                                                                                                                                                                                                        
