00180046012015060000000859000000435700000065940000000000060354840000000000000000000000248501RICARDO SALAS                                     
11000011010000000328                                                                                                                                                                                                        
11000012010000000531                                                                                                                                                                                                        
14000011010000001318                                                                                                                                                                                                        
14000012010000003039                                                                                                                                                                                                        
21000011010000000713                                                                                                                                                                                                        
21000012010000001524                                                                                                                                                                                                        
22000011010000001318                                                                                                                                                                                                        
22000012010000003039                                                                                                                                                                                                        
31000014020000059634                                                                                                                                                                                                        
32000013020002411697                                                                                                                                                                                                        
32000014020003554702                                                                                                                                                                                                        
33000013020000009451                                                                                                                                                                                                        
41000015040000248501                                                                                                                                                                                                        
