00180046012014110000000831000000369500000058360000000000056136750000000000000000000000000000RICARDO SALAS                                     
11000011010000000325                                                                                                                                                                                                        
11000012010000000506                                                                                                                                                                                                        
14000011010000001141                                                                                                                                                                                                        
14000012010000002554                                                                                                                                                                                                        
21000011010000000725                                                                                                                                                                                                        
21000012010000001416                                                                                                                                                                                                        
22000011010000001141                                                                                                                                                                                                        
22000012010000002554                                                                                                                                                                                                        
31000014020000060289                                                                                                                                                                                                        
32000013020002594661                                                                                                                                                                                                        
32000014020002948022                                                                                                                                                                                                        
33000013020000010703                                                                                                                                                                                                        
