00180046012016090000000886000000582500000078000000000000067957260000000000000000000000585000RICARDO SALAS                                     
11000011010000000339                                                                                                                                                                                                        
11000012010000000547                                                                                                                                                                                                        
14000011010000001491                                                                                                                                                                                                        
14000012010000004334                                                                                                                                                                                                        
21000011010000000639                                                                                                                                                                                                        
21000012010000001336                                                                                                                                                                                                        
22000011010000001491                                                                                                                                                                                                        
22000012010000004334                                                                                                                                                                                                        
31000014020000058601                                                                                                                                                                                                        
32000013020002685612                                                                                                                                                                                                        
32000014020004042707                                                                                                                                                                                                        
33000013020000008806                                                                                                                                                                                                        
41000015040000585000                                                                                                                                                                                                        
