00180046012012010000000742000000023500000002350000000000021071150000000000000000000000000000VICTOR BRINGAS                                    
11000011010000000277                                                                                                                                                                                                        
11000012010000000465                                                                                                                                                                                                        
14000013010000000235                                                                                                                                                                                                        
21000011010000000235                                                                                                                                                                                                        
32000014020002107115                                                                                                                                                                                                        
