001800460220110600097506390000009137000001269061188169000000007887664882RICARDO SALAS                                     
11100000103100005549730000000042000000168927873022000000000007591309                                                                                                                                                                                                        
11100000304500000527640000000067000000051574664632000000000072940271                                                                                                                                                                                                        
11200000304500000892190000000280000000212452099783000000000530561100                                                                                                                                                                                                        
12100000303800000299990000007000000000000612579000000000000015339400                                                                                                                                                                                                        
12100000303900001534270000000000000000007445175291000000000000000000                                                                                                                                                                                                        
12100000304000000217770000000000000000225701647551000000000000000000                                                                                                                                                                                                        
12100000304300000136040000000153000000071108841606000000001313119283                                                                                                                                                                                                        
12100000304400040359400000000000000000180740445824000000000000000000                                                                                                                                                                                                        
12200000303100000020540000000090000000001975913748000000000024852981                                                                                                                                                                                                        
12200000303800000029850000000212000000000202081412000000000002793113                                                                                                                                                                                                        
12200000304300000042290000000147000000001075106850000000000004784831                                                                                                                                                                                                        
12200000304400000584850000000000000000066650966870000000000000000000                                                                                                                                                                                                        
13100000204500005536980000000000000000011416945493000000000000000000                                                                                                                                                                                                        
15000000204300000027100000000188000000167271786087000000005896901594                                                                                                                                                                                                        
31000000103200000997270000000000000000002183174000000000000000000000                                                                                                                                                                                                        
32000000103200040750480000000958000000099721887000000000000018781000                                                                                                                                                                                                        
