001800460220141000125284280000003886000002544378069944000000009461809621RICARDO SALAS                                     
11100000103100006173120000000029000000314249687191000000000006073114                                                                                                                                                                                                        
11100000304500000873040000000088000000095279394635000000000133145926                                                                                                                                                                                                        
11200000304500000972060000000228000000255980352234000000000560634795                                                                                                                                                                                                        
12100000303500000015880000000000000000000017294300000000000000000000                                                                                                                                                                                                        
12100000303800000895480000000036000000001883309902000000000000873005                                                                                                                                                                                                        
12100000303900003436670000000000000000031145147423000000000000000000                                                                                                                                                                                                        
12100000304000000640390000000000000000493161351721000000000000000000                                                                                                                                                                                                        
12100000304300000355620000000137000000115680479434000000002719489171                                                                                                                                                                                                        
12100000304400035734310000000000000000280859904527000000000000000000                                                                                                                                                                                                        
12200000303100000061270000000168000000014295353096000000000051454219                                                                                                                                                                                                        
12200000303800000065350000000443000000000490734760000000000007636833                                                                                                                                                                                                        
12200000304300000084590000000713000000002011238716000000000068292550                                                                                                                                                                                                        
12200000304400001534040000000000000000173840791586000000000000000000                                                                                                                                                                                                        
13100000204500006401330000000000000000014166755205000000000000000000                                                                                                                                                                                                        
15000000204300000046490000000230000000582675726414000000005883464608                                                                                                                                                                                                        
32000000103200050434570000000652000000144047630000000000000018500000                                                                                                                                                                                                        
32000000103500007897970000000000000000011844160700000000000000000000                                                                                                                                                                                                        
32000000303600009226050000001162000000009368988300000000000012245400                                                                                                                                                                                                        
33000000103100000159590000000000000000002915718100000000000000000000                                                                                                                                                                                                        
33000000103200000188050000000000000000000300792700000000000000000000                                                                                                                                                                                                        
33000000303600000088410000000000000000000163259000000000000000000000                                                                                                                                                                                                        
