001800460220110400077427110000008818000001292817820445000000027465128144RICARDO SALAS                                     
11100000103100005303190000000031000000167797493784000000000005425333                                                                                                                                                                                                        
11100000304500000454040000000048000000056119256531000000000275982603                                                                                                                                                                                                        
11200000304500000774800000000223000000158319025445000000000383967294                                                                                                                                                                                                        
12100000303800000270960000006868000000000574060100000000000014761000                                                                                                                                                                                                        
12100000303900001405450000000000000000006944896427000000000000000000                                                                                                                                                                                                        
12100000304000000190220000000000000000261971968266000000000000000000                                                                                                                                                                                                        
12100000304300000099720000000139000000130028130914000000015301277082                                                                                                                                                                                                        
12100000304400024384570000000000000000181325908363000000000000000000                                                                                                                                                                                                        
12200000303100000019280000000082000000002313628140000000000028946363                                                                                                                                                                                                        
12200000303800000027430000000209000000000189788259000000000002857653                                                                                                                                                                                                        
12200000304300000043740000000147000000001115934233000000000009613487                                                                                                                                                                                                        
12200000304400000451820000000000000000050310677420000000000000000000                                                                                                                                                                                                        
13100000204500003943510000000000000000008235975244000000000000000000                                                                                                                                                                                                        
15000000204300000026890000000100000000167785805319000000011420393329                                                                                                                                                                                                        
31000000103200000890740000000000000000001809895000000000000000000000                                                                                                                                                                                                        
32000000103200039140750000000971000000097975377000000000000021904000                                                                                                                                                                                                        
