001800460220160300124833780000003357000002211807909108000000010784310350RICARDO SALAS                                     
11100000103100005525190000000035000000274952651450000000000003272003                                                                                                                                                                                                        
11100000304500000675530000000068000000071469609625000000000090098002                                                                                                                                                                                                        
11200000304500000838750000000222000000238334683312000000001175217470                                                                                                                                                                                                        
12100000303500000028460000000000000000000022728200000000000000000000                                                                                                                                                                                                        
12100000303800000944600000000033000000002652119000000000000001170420                                                                                                                                                                                                        
12100000303900003244120000000000000000032737838130000000000000000000                                                                                                                                                                                                        
12100000304000000611630000000000000000472506540432000000000000000000                                                                                                                                                                                                        
12100000304200002139870000000000000000003363185846000000000000000000                                                                                                                                                                                                        
12100000304300000256130000000048000000103285820981000000001845040845                                                                                                                                                                                                        
12100000304400022970010000000000000000280766533320000000000000000000                                                                                                                                                                                                        
12200000303100000060240000000246000000010723299659000000000129767396                                                                                                                                                                                                        
12200000303800000085040000000487000000000790910268000000000010118900                                                                                                                                                                                                        
12200000304300000096370000000097000000003138933526000000000007079784                                                                                                                                                                                                        
12200000304400001305850000000000000000140091265678000000000000000000                                                                                                                                                                                                        
13100000204500006517090000000000000000015851167109000000000000000000                                                                                                                                                                                                        
15000000204300000036700000000214000000341658339672000000007469400730                                                                                                                                                                                                        
32000000103200051731340000000854000000177745567000000000000030254000                                                                                                                                                                                                        
32000000103500015748010000000000000000024290676200000000000000000000                                                                                                                                                                                                        
32000000303600010814090000001053000000011498769200000000000022890800                                                                                                                                                                                                        
33000000103100000301940000000000000000004695291600000000000000000000                                                                                                                                                                                                        
33000000103200000686920000000000000000000926978400000000000000000000                                                                                                                                                                                                        
33000000103600000215900000000000000000000305000500000000000000000000                                                                                                                                                                                                        
