00180046012015050000000846000000418800000064480000000000059551300000000000000000000000219076RICARDO SALAS                                     
11000011010000000326                                                                                                                                                                                                        
11000012010000000520                                                                                                                                                                                                        
14000011010000001249                                                                                                                                                                                                        
14000012010000002939                                                                                                                                                                                                        
21000011010000000732                                                                                                                                                                                                        
21000012010000001528                                                                                                                                                                                                        
22000011010000001249                                                                                                                                                                                                        
22000012010000002939                                                                                                                                                                                                        
31000014020000059740                                                                                                                                                                                                        
32000013020002741026                                                                                                                                                                                                        
32000014020003143341                                                                                                                                                                                                        
33000013020000011023                                                                                                                                                                                                        
41000015040000219076                                                                                                                                                                                                        
