00180046012013120000000805000000464800000046470000000000049756660000000000000000000000000000RICARDO SALAS                                     
11000011010000000301                                                                                                                                                                                                        
11000012010000000504                                                                                                                                                                                                        
14000011010000000848                                                                                                                                                                                                        
14000012010000001573                                                                                                                                                                                                        
21000011010000000734                                                                                                                                                                                                        
21000012010000001492                                                                                                                                                                                                        
22000011010000000848                                                                                                                                                                                                        
22000012010000001573                                                                                                                                                                                                        
31000013020000000127                                                                                                                                                                                                        
31000014020000061168                                                                                                                                                                                                        
32000013020002525797                                                                                                                                                                                                        
32000014020002388574                                                                                                                                                                                                        
