00180046012015030000000830000000389500000060350000000000057860030000000000000000000000000000RICARDO SALAS                                     
11000011010000000317                                                                                                                                                                                                        
11000012010000000513                                                                                                                                                                                                        
14000011010000001170                                                                                                                                                                                                        
14000012010000002725                                                                                                                                                                                                        
21000011010000000722                                                                                                                                                                                                        
21000012010000001418                                                                                                                                                                                                        
22000011010000001170                                                                                                                                                                                                        
22000012010000002725                                                                                                                                                                                                        
31000014020000059928                                                                                                                                                                                                        
32000013020002621981                                                                                                                                                                                                        
32000014020003094318                                                                                                                                                                                                        
33000013020000009776                                                                                                                                                                                                        
