001800460220160400135556880000003585000002286155294775000000005173662079RICARDO SALAS                                     
11100000103100005537650000000039000000265141930851000000000011604363                                                                                                                                                                                                        
11100000304500000714200000000068000000068546761249000000000104218338                                                                                                                                                                                                        
11200000304500000845860000000241000000262757125437000000000527473063                                                                                                                                                                                                        
12100000303500000027610000000000000000000021580700000000000000000000                                                                                                                                                                                                        
12100000303800000901870000000082000000002679336100000000000003291199                                                                                                                                                                                                        
12100000303900004314660000000000000000041576113104000000000000000000                                                                                                                                                                                                        
12100000304000000643930000000000000000521637876909000000000000000000                                                                                                                                                                                                        
12100000304200002475860000000000000000003849473032000000000000000000                                                                                                                                                                                                        
12100000304300000298770000000066000000094970641911000000001385501476                                                                                                                                                                                                        
12100000304400036002490000000000000000303324528934000000000000000000                                                                                                                                                                                                        
12200000303100000061670000000218000000011995662573000000000081871918                                                                                                                                                                                                        
12200000303800000083750000000485000000000785765101000000000009901594                                                                                                                                                                                                        
12200000304300000104300000000505000000003187221186000000000053536994                                                                                                                                                                                                        
12200000304400001432630000000000000000163670736346000000000000000000                                                                                                                                                                                                        
13100000204500006079880000000000000000014774004576000000000000000000                                                                                                                                                                                                        
15000000204300000030630000000208000000324139475166000000002952530434                                                                                                                                                                                                        
32000000103200048895740000000766000000162700640000000000000026519000                                                                                                                                                                                                        
32000000103500015915150000000000000000024040126500000000000000000000                                                                                                                                                                                                        
32000000303600010030930000000907000000010490343900000000000017213700                                                                                                                                                                                                        
33000000103100000300000000000000000000004722636600000000000000000000                                                                                                                                                                                                        
33000000103200000666870000000000000000000886041100000000000000000000                                                                                                                                                                                                        
33000000103600000192430000000000000000000257273500000000000000000000                                                                                                                                                                                                        
