00180046012014040000000801000001539600000050220000000000051854090000000000000000000000000000RICARDO SALAS                                     
11000011010000000299                                                                                                                                                                                                        
11000012010000000502                                                                                                                                                                                                        
14000011010000000981                                                                                                                                                                                                        
14000012010000001917                                                                                                                                                                                                        
21000011010000000693                                                                                                                                                                                                        
21000012010000001431                                                                                                                                                                                                        
22000011010000000981                                                                                                                                                                                                        
22000012010000001917                                                                                                                                                                                                        
31000014020000060972                                                                                                                                                                                                        
32000013020002360122                                                                                                                                                                                                        
32000014020002758528                                                                                                                                                                                                        
33000013020000005787                                                                                                                                                                                                        
