001800460220150800149111210000004318000002587881322300000000011184890443RICARDO SALAS                                     
11100000103100005701070000000081000000269096270341000000000007050614                                                                                                                                                                                                        
11100000304500000804110000000055000000072658067188000000000072399805                                                                                                                                                                                                        
11200000304500000958770000000274000000258218268456000000000456496737                                                                                                                                                                                                        
12100000303500000018920000000000000000000013400500000000000000000000                                                                                                                                                                                                        
12100000303800000865480000000048000000002213154800000000000001444955                                                                                                                                                                                                        
12100000303900003096280000000000000000031770229584000000000000000000                                                                                                                                                                                                        
12100000304000000688850000000000000000660863497660000000000000000000                                                                                                                                                                                                        
12100000304200017485450000000000000000001873384100000000000000000000                                                                                                                                                                                                        
12100000304300000315310000000134000000126185517878000000005123054145                                                                                                                                                                                                        
12100000304400031848410000000000000000282078789144000000000000000000                                                                                                                                                                                                        
12200000303100000063240000000221000000014865670099000000000144929018                                                                                                                                                                                                        
12200000303800000073160000000437000000000646325996000000000008900791                                                                                                                                                                                                        
12200000304300000093950000001023000000002980854045000000000074037594                                                                                                                                                                                                        
12200000304400001493900000000000000000152268173510000000000000000000                                                                                                                                                                                                        
13100000204500006275510000000000000000014476123600000000000000000000                                                                                                                                                                                                        
15000000204300000051890000000250000000489113362251000000005269746784                                                                                                                                                                                                        
32000000103200056585720000000628000000175086709000000000000015769000                                                                                                                                                                                                        
32000000103500010896780000000000000000016633669700000000000000000000                                                                                                                                                                                                        
32000000303600010938680000001167000000011927866300000000000011061000                                                                                                                                                                                                        
33000000103100000250160000000000000000004007062566000000000000000000                                                                                                                                                                                                        
33000000103200000439620000000000000000000636013300000000000000000000                                                                                                                                                                                                        
33000000303600000165950000000000000000000268912282000000000000000000                                                                                                                                                                                                        
