001800460220110900088294260000008796000001453256959568000000009670762575RICARDO SALAS                                     
11100000103100006109640000000034000000206567057910000000000010745658                                                                                                                                                                                                        
11100000304500000631120000000081000000069971413631000000000532536520                                                                                                                                                                                                        
11200000304500001083400000000260000000254910059877000000000557856452                                                                                                                                                                                                        
12100000303800000351400000006729000000000687503822000000000014812419                                                                                                                                                                                                        
12100000303900001596620000000000000000010159089959000000000000000000                                                                                                                                                                                                        
12100000304000000491920000000000000000256707504732000000000000000000                                                                                                                                                                                                        
12100000304300000158390000000159000000064736602059000000002276752017                                                                                                                                                                                                        
12100000304400029873450000000000000000199177052352000000000000000000                                                                                                                                                                                                        
12200000303100000024540000000093000000002212212237000000000031942708                                                                                                                                                                                                        
12200000303800000034150000000231000000000234933356000000000003258002                                                                                                                                                                                                        
12200000304300000045010000000104000000000863227623000000000005118355                                                                                                                                                                                                        
12200000304400000705930000000000000000061742305310000000000000000000                                                                                                                                                                                                        
13100000204500005457060000000000000000011480914837000000000000000000                                                                                                                                                                                                        
15000000204300000033440000000143000000208780437863000000006217406444                                                                                                                                                                                                        
31000000103200001216240000000000000000002666674000000000000000000000                                                                                                                                                                                                        
32000000103200040481950000000962000000102359970000000000000020334000                                                                                                                                                                                                        
