001800460220141200172070330000003585000003693146348461000000031959978711RICARDO SALAS                                     
11100000103100008467820000000037000000451334178684000000000028432282                                                                                                                                                                                                        
11100000304500001093770000000069000000137101155973000000000102340384                                                                                                                                                                                                        
11200000304500001137910000000265000000250528782821000000000830590146                                                                                                                                                                                                        
12100000303500000014390000000000000000000035381300000000000000000000                                                                                                                                                                                                        
12100000303800000972340000000036000000002237608289000000000001188500                                                                                                                                                                                                        
12100000303900004573000000000000000000040766640764000000000000000000                                                                                                                                                                                                        
12100000304000000980120000000000000000959194031009000000000000000000                                                                                                                                                                                                        
12100000304300000523990000000178000000362361992753000000002720305511                                                                                                                                                                                                        
12100000304400058372260000000000000000457311652377000000000000000000                                                                                                                                                                                                        
12200000303100000062720000000202000000015678261411000000000092508512                                                                                                                                                                                                        
12200000303800000077440000000471000000000614883671000000000008042057                                                                                                                                                                                                        
12200000304300000120900000000501000000002643042077000000000042904730                                                                                                                                                                                                        
12200000304400002403360000000000000000304461475812000000000000000000                                                                                                                                                                                                        
13100000204500006452770000000000000000014335921791000000000000000000                                                                                                                                                                                                        
15000000204300000062040000000322000000458659531829000000028103967089                                                                                                                                                                                                        
32000000103200062556560000000553000000199970241000000000000016890000                                                                                                                                                                                                        
32000000103500010929170000000000000000018061959900000000000000000000                                                                                                                                                                                                        
32000000303600012781770000000951000000014267037100000000000012809500                                                                                                                                                                                                        
33000000103100000154990000000000000000002983677900000000000000000000                                                                                                                                                                                                        
33000000103200000204950000000000000000000355138000000000000000000000                                                                                                                                                                                                        
33000000303600000128060000000000000000000243754000000000000000000000                                                                                                                                                                                                        
