00180046012015010000000839000000375000000059710000000000056596360000000000000000000000000000RICARDO SALAS                                     
11000011010000000328                                                                                                                                                                                                        
11000012010000000511                                                                                                                                                                                                        
14000011010000001148                                                                                                                                                                                                        
14000012010000002602                                                                                                                                                                                                        
21000011010000000801                                                                                                                                                                                                        
21000012010000001420                                                                                                                                                                                                        
22000011010000001148                                                                                                                                                                                                        
22000012010000002602                                                                                                                                                                                                        
31000014020000060147                                                                                                                                                                                                        
32000013020002304582                                                                                                                                                                                                        
32000014020003284821                                                                                                                                                                                                        
33000013020000010086                                                                                                                                                                                                        
