001800460220160900136336690000003898000002282013997813000000012417066059RICARDO SALAS                                     
11100000103100005171200000000048000000245443369528000000000004594141                                                                                                                                                                                                        
11100000304500000782310000000065000000065321275917000000000071010906                                                                                                                                                                                                        
11200000304500000900760000000239000000242409219775000000000621463385                                                                                                                                                                                                        
12100000303500000032690000000000000000000026885400000000000000000000                                                                                                                                                                                                        
12100000303800001069840000000059000000002723013200000000000001858840                                                                                                                                                                                                        
12100000303900003376450000000000000000034845434316000000000000000000                                                                                                                                                                                                        
12100000304000001090580000000000000000514351995494000000000000000000                                                                                                                                                                                                        
12100000304200003093880000000000000000004943061556000000000000000000                                                                                                                                                                                                        
12100000304300000384910000000095000000115885131257000000001585960413                                                                                                                                                                                                        
12100000304400030369880000000000000000297942407857000000000000000000                                                                                                                                                                                                        
12200000303100000070490000000171000000018726340428000000000069006993                                                                                                                                                                                                        
12200000303800000097580000000547000000000912943924000000000010666950                                                                                                                                                                                                        
12200000304300000099710000000482000000003227769458000000000051097909                                                                                                                                                                                                        
12200000304400001724400000000000000000184825156641000000000000000000                                                                                                                                                                                                        
13100000204500005966610000000000000000014976828647000000000000000000                                                                                                                                                                                                        
15000000204300000043390000000177000000318120447115000000009958130822                                                                                                                                                                                                        
32000000103200051846970000000652000000171567548000000000000020657000                                                                                                                                                                                                        
32000000103500018569410000000000000000028379545700000000000000000000                                                                                                                                                                                                        
32000000303600010250080000001363000000010456820300000000000022618700                                                                                                                                                                                                        
33000000103100000353260000000000000000005200094900000000000000000000                                                                                                                                                                                                        
33000000103200000801280000000000000000001427659000000000000000000000                                                                                                                                                                                                        
33000000103600000241010000000000000000000301049400000000000000000000                                                                                                                                                                                                        
