00180046012016080000000886000000580000000077750000000000067541720000000000000000000000560890RICARDO SALAS                                     
11000011010000000332                                                                                                                                                                                                        
11000012010000000554                                                                                                                                                                                                        
14000011010000001474                                                                                                                                                                                                        
14000012010000004326                                                                                                                                                                                                        
21000011010000000639                                                                                                                                                                                                        
21000012010000001336                                                                                                                                                                                                        
22000011010000001474                                                                                                                                                                                                        
22000012010000004326                                                                                                                                                                                                        
31000014020000058651                                                                                                                                                                                                        
32000013020002525978                                                                                                                                                                                                        
32000014020004160046                                                                                                                                                                                                        
33000013020000009497                                                                                                                                                                                                        
41000015040000560890                                                                                                                                                                                                        
