001800460220110700092505620000009287000001819278638661000000016569232102RICARDO SALAS                                     
11100000103100005705950000000042000000277426463043000000000008162343                                                                                                                                                                                                        
11100000304500000538150000000051000000067352515649000000000058590833                                                                                                                                                                                                        
11200000304500000911940000000256000000298545011865000000000607271418                                                                                                                                                                                                        
12100000303800000327660000007198000000000715459800000000000016840900                                                                                                                                                                                                        
12100000303900001473630000000000000000010927195694000000000000000000                                                                                                                                                                                                        
12100000304000000232880000000000000000348728806344000000000000000000                                                                                                                                                                                                        
12100000304300000137890000000173000000055009022493000000002444678959                                                                                                                                                                                                        
12100000304400030604490000000000000000260078540155000000000000000000                                                                                                                                                                                                        
12200000303100000025540000000148000000001933386506000000000034592644                                                                                                                                                                                                        
12200000303800000035580000000272000000000252840623000000000003978531                                                                                                                                                                                                        
12200000304300000044630000000074000000001109413299000000000004150998                                                                                                                                                                                                        
12200000304400000615730000000000000000066886126920000000000000000000                                                                                                                                                                                                        
13100000204500005576870000000000000000011594012041000000000000000000                                                                                                                                                                                                        
15000000204300000031890000000222000000294203371229000000013372925476                                                                                                                                                                                                        
31000000103200001325730000000000000000002856362000000000000000000000                                                                                                                                                                                                        
32000000103200044917060000000851000000121660111000000000000018040000                                                                                                                                                                                                        
