00180046012014080000000814000000334400000055400000000000054005800000000000000000000000000000RICARDO SALAS                                     
11000011010000000320                                                                                                                                                                                                        
11000012010000000494                                                                                                                                                                                                        
14000011010000001112                                                                                                                                                                                                        
14000012010000002232                                                                                                                                                                                                        
21000011010000000769                                                                                                                                                                                                        
21000012010000001427                                                                                                                                                                                                        
22000011010000001112                                                                                                                                                                                                        
22000012010000002232                                                                                                                                                                                                        
31000014020000060590                                                                                                                                                                                                        
32000013020002357070                                                                                                                                                                                                        
32000014020002976077                                                                                                                                                                                                        
33000013020000006843                                                                                                                                                                                                        
