00180046012014070000000823000000323100000053920000000000053506780000000000000000000000000000RICARDO SALAS                                     
11000011010000000319                                                                                                                                                                                                        
11000012010000000504                                                                                                                                                                                                        
14000011010000001072                                                                                                                                                                                                        
14000012010000002159                                                                                                                                                                                                        
21000011010000000732                                                                                                                                                                                                        
21000012010000001429                                                                                                                                                                                                        
22000011010000001072                                                                                                                                                                                                        
22000012010000002159                                                                                                                                                                                                        
31000014020000060717                                                                                                                                                                                                        
32000013020002650834                                                                                                                                                                                                        
32000014020002632991                                                                                                                                                                                                        
33000013020000006136                                                                                                                                                                                                        
