001800460220140200101346070000001595000002195581289048000000006798934891RICARDO SALAS                                     
11100000103100004956640000000023000000295864874152000000000003454968                                                                                                                                                                                                        
11100000304500000740550000000040000000095555843597000000000045685001                                                                                                                                                                                                        
11200000304500000892420000000163000000254715167357000000000466203630                                                                                                                                                                                                        
12100000303500000034240000000000000000000025274724000000000000000000                                                                                                                                                                                                        
12100000303800000676790000000021000000000860347369000000000000481251                                                                                                                                                                                                        
12100000303900003191830000000000000000026376811863000000000000000000                                                                                                                                                                                                        
12100000304000000390850000000000000000532209576693000000000000000000                                                                                                                                                                                                        
12100000304300000112670000000112000000103582059333000000000556526410                                                                                                                                                                                                        
12100000304400029617680000000000000000266855825516000000000000000000                                                                                                                                                                                                        
12200000303100000043980000000150000000005115918490000000000085101396                                                                                                                                                                                                        
12200000303800000050470000000314000000000383779569000000000006645077                                                                                                                                                                                                        
12200000304300000062450000000054000000001774590472000000000003394057                                                                                                                                                                                                        
12200000304400000534050000000000000000069485317164000000000000000000                                                                                                                                                                                                        
13100000204500006144480000000000000000013620876493000000000000000000                                                                                                                                                                                                        
15000000204300000050950000000173000000384821812023000000005615931101                                                                                                                                                                                                        
31000000103200000005300000000000000000000014988000000000000000000000                                                                                                                                                                                                        
32000000103200042693440000000545000000128336718000000000000015512000                                                                                                                                                                                                        
32000000103500002798450000000000000000007127267805000000000000000000                                                                                                                                                                                                        
32000000303600008348830000000000000000008854240428000000000000000000                                                                                                                                                                                                        
