00180046012016050000000891000000561100000075810000000000065909030000000000000000000000480398RICARDO SALAS                                     
11000011010000000343                                                                                                                                                                                                        
11000012010000000548                                                                                                                                                                                                        
14000011010000001508                                                                                                                                                                                                        
14000012010000004103                                                                                                                                                                                                        
21000011010000000659                                                                                                                                                                                                        
21000012010000001311                                                                                                                                                                                                        
22000011010000001508                                                                                                                                                                                                        
22000012010000004103                                                                                                                                                                                                        
31000014020000058820                                                                                                                                                                                                        
32000013020002784231                                                                                                                                                                                                        
32000014020003737549                                                                                                                                                                                                        
33000013020000010303                                                                                                                                                                                                        
41000015040000480398                                                                                                                                                                                                        
