001800460220140700130395350000003226000002492228699329000000006388835767RICARDO SALAS                                     
11100000103100006080210000000032000000325651316779000000000005486423                                                                                                                                                                                                        
11100000304500000808010000000052000000089531445882000000000190251766                                                                                                                                                                                                        
11200000304500000943340000000226000000213430201802000000000629962735                                                                                                                                                                                                        
12100000303500000050790000000000000000000038118600000000000000000000                                                                                                                                                                                                        
12100000303800000774630000000035000000001177935844000000000001105042                                                                                                                                                                                                        
12100000303900004025570000000000000000037167524684000000000000000000                                                                                                                                                                                                        
12100000304000001128710000000000000000614679037125000000000000000000                                                                                                                                                                                                        
12100000304300000318150000000143000000186266814239000000001333357742                                                                                                                                                                                                        
12100000304400039318660000000000000000366278033163000000000000000000                                                                                                                                                                                                        
12200000303100000051570000000175000000009390956661000000000055864833                                                                                                                                                                                                        
12200000303800000067000000000448000000000527292370000000000007953490                                                                                                                                                                                                        
12200000304300000087520000000624000000002313575832000000000045618919                                                                                                                                                                                                        
12200000304400001272450000000000000000129897157452000000000000000000                                                                                                                                                                                                        
13100000204500006386480000000000000000014079435674000000000000000000                                                                                                                                                                                                        
15000000204300000045700000000202000000319674941899000000004094168535                                                                                                                                                                                                        
32000000103200050616740000000519000000156488439000000000000016353000                                                                                                                                                                                                        
32000000103500008299650000000000000000013038118190000000000000000000                                                                                                                                                                                                        
32000000303600009838910000000770000000010446824004000000000008713282                                                                                                                                                                                                        
33000000103100000087090000000000000000001809781423000000000000000000                                                                                                                                                                                                        
33000000103200000126430000000000000000000218383262000000000000000000                                                                                                                                                                                                        
33000000303600000067740000000000000000000123365444000000000000000000                                                                                                                                                                                                        
