001800460220160100127395590000003535000002834040571923000000002622343179RICARDO SALAS                                     
11100000103100005428210000000059000000268800759257000000000004818003                                                                                                                                                                                                        
11100000304500000989600000000056000000081062049227000000000096163846                                                                                                                                                                                                        
11200000304500000983560000000255000000215263528295000000000687130428                                                                                                                                                                                                        
12100000303500000024560000000000000000000019116900000000000000000000                                                                                                                                                                                                        
12100000303800000928180000000044000000002506261453000000000001523763                                                                                                                                                                                                        
12100000303900003254130000000000000000026982260856000000000000000000                                                                                                                                                                                                        
12100000304000000503210000000000000000739157084417000000000000000000                                                                                                                                                                                                        
12100000304200001991170000000000000000002708810482000000000000000000                                                                                                                                                                                                        
12100000304300000311220000000053000000181304615782000000000699297928                                                                                                                                                                                                        
12100000304400024671320000000000000000330145404218000000000000000000                                                                                                                                                                                                        
12200000303100000060540000000218000000012847844538000000000132424182                                                                                                                                                                                                        
12200000303800000076820000000426000000000741731207000000000008239905                                                                                                                                                                                                        
12200000304300000097380000000304000000003503189342000000000030304504                                                                                                                                                                                                        
12200000304400001504770000000000000000224597731448000000000000000000                                                                                                                                                                                                        
13100000204500006192530000000000000000014741116381000000000000000000                                                                                                                                                                                                        
15000000204300000045200000000179000000503431638720000000000922128820                                                                                                                                                                                                        
32000000103200055208860000000682000000188288167000000000000022646000                                                                                                                                                                                                        
32000000103500013024860000000000000000020700749700000000000000000000                                                                                                                                                                                                        
32000000103600011137110000001259000000012228391000000000000017665800                                                                                                                                                                                                        
33000000103100000231430000000000000000003993704000000000000000000000                                                                                                                                                                                                        
33000000103200000545530000000000000000000750831900000000000000000000                                                                                                                                                                                                        
33000000303600000185400000000000000000000265585800000000000000000000                                                                                                                                                                                                        
