001800460220130200095229720000001809000001922406204659000000009321485872RICARDO SALAS                                     
11100000103100004843170000000019000000277382894934000000000002603833                                                                                                                                                                                                        
11100000304500000659050000000048000000087791413655000000000034919171                                                                                                                                                                                                        
11200000304500000894460000000172000000247741257159000000000301994094                                                                                                                                                                                                        
12100000303800000559240000000012000000000645752119000000000000171887                                                                                                                                                                                                        
12100000303900002962960000000000000000023058056406000000000000000000                                                                                                                                                                                                        
12100000304000000275160000000000000000406435557743000000000000000000                                                                                                                                                                                                        
12100000304300000095410000000286000000061648683342000000001365208880                                                                                                                                                                                                        
12100000304400035973190000000000000000214462798963000000000000000000                                                                                                                                                                                                        
12200000303100000031990000000169000000003638119102000000000038763171                                                                                                                                                                                                        
12200000303800000035850000000295000000000276843136000000000004895653                                                                                                                                                                                                        
12200000304300000045210000000085000000001206166728000000000004147413                                                                                                                                                                                                        
12200000304400000400070000000000000000048569794590000000000000000000                                                                                                                                                                                                        
13100000204500005116790000000000000000012234314325000000000000000000                                                                                                                                                                                                        
15000000204300000032990000000105000000414715744457000000007551834770                                                                                                                                                                                                        
31000000103200000004100000000000000000000016305000000000000000000000                                                                                                                                                                                                        
32000000103200043300080000000618000000122582503000000000000016947000                                                                                                                                                                                                        
