00180046012016010000000887000000535600000072690000000000063392330000000000000000000000392818RICARDO SALAS                                     
11000011010000000344                                                                                                                                                                                                        
11000012010000000543                                                                                                                                                                                                        
14000011010000001536                                                                                                                                                                                                        
14000012010000003820                                                                                                                                                                                                        
21000011010000000585                                                                                                                                                                                                        
21000012010000001328                                                                                                                                                                                                        
22000011010000001536                                                                                                                                                                                                        
22000012010000003820                                                                                                                                                                                                        
31000014020000059098                                                                                                                                                                                                        
32000013020002423186                                                                                                                                                                                                        
32000014020003848204                                                                                                                                                                                                        
33000015040000008745                                                                                                                                                                                                        
41000015040000392818                                                                                                                                                                                                        
