00180046012016030000000894000000543600000073630000000000064346560000000000000000000000430125RICARDO SALAS                                     
11000011010000000342                                                                                                                                                                                                        
11000012010000000552                                                                                                                                                                                                        
14000011010000001529                                                                                                                                                                                                        
14000012010000003907                                                                                                                                                                                                        
21000011010000000621                                                                                                                                                                                                        
21000012010000001306                                                                                                                                                                                                        
22000011010000001529                                                                                                                                                                                                        
22000012010000003907                                                                                                                                                                                                        
31000013020000058962                                                                                                                                                                                                        
32000013020002731641                                                                                                                                                                                                        
32000014020003634792                                                                                                                                                                                                        
33000013020000009261                                                                                                                                                                                                        
41000015040000430125                                                                                                                                                                                                        
