00180046012015040000000829000000405000000062930000000000058666040000000000000000000000000000RICARDO SALAS                                     
11000011010000000314                                                                                                                                                                                                        
11000012010000000515                                                                                                                                                                                                        
14000011010000001211                                                                                                                                                                                                        
14000012010000002839                                                                                                                                                                                                        
21000011010000000726                                                                                                                                                                                                        
21000012010000001517                                                                                                                                                                                                        
22000011010000001211                                                                                                                                                                                                        
22000012010000002839                                                                                                                                                                                                        
31000014020000059809                                                                                                                                                                                                        
32000013020002349205                                                                                                                                                                                                        
32000014020003447975                                                                                                                                                                                                        
33000013020000009615                                                                                                                                                                                                        
