001800460220110300085930820000009768000001329345167460000000005917869607RICARDO SALAS                                     
11100000103100005324350000000052000000170151706334000000000030427797                                                                                                                                                                                                        
11100000204500000445110000000000000000046282138184000000000000000000                                                                                                                                                                                                        
11100000304500000037440000000065000000008286590073000000000153541884                                                                                                                                                                                                        
11200000304500000834740000000244000000201377682159000000000371698088                                                                                                                                                                                                        
12100000303800000340760000007758000000000647101700000000000017255100                                                                                                                                                                                                        
12100000303900001078890000000000000000005371477415000000000000000000                                                                                                                                                                                                        
12100000304000000232830000000000000000301470987666000000000000000000                                                                                                                                                                                                        
12100000304400027506010000000000000000183926628433000000000000000000                                                                                                                                                                                                        
12200000303100000022140000000103000000002044888813000000000032214412                                                                                                                                                                                                        
12200000303800000033030000000286000000000220015904000000000004785088                                                                                                                                                                                                        
12200000304300000055930000000160000000001330931071000000000009376539                                                                                                                                                                                                        
12200000304400000609660000000000000000056943075260000000000000000000                                                                                                                                                                                                        
13100000204500005911960000000000000000011918852713000000000000000000                                                                                                                                                                                                        
15000000204300000030380000000122000000232333331735000000005277910699                                                                                                                                                                                                        
31000000103200001262810000000000000000001612138000000000000000000000                                                                                                                                                                                                        
32000000103200042204780000000978000000105427622000000000000020660000                                                                                                                                                                                                        
