001800460220160800135184200000003830000002650041360440000000015724812870RICARDO SALAS                                     
11100000103100005118080000000023000000246546433236000000000002184222                                                                                                                                                                                                        
11100000304500000793730000000063000000067927182020000000000086557293                                                                                                                                                                                                        
11200000304500000894480000000226000000236615361348000000000389827701                                                                                                                                                                                                        
12100000303500000031730000000000000000000025955300000000000000000000                                                                                                                                                                                                        
12100000303800000715260000000053000000002748169600000000000001331214                                                                                                                                                                                                        
12100000303900003325700000000000000000037299500824000000000000000000                                                                                                                                                                                                        
12100000304000000714440000000000000000676620577550000000000000000000                                                                                                                                                                                                        
12100000304200003061260000000000000000004880369178000000000000000000                                                                                                                                                                                                        
12100000304300000373660000000061000000107833668670000000006557143996                                                                                                                                                                                                        
12100000304400029267750000000000000000297732311970000000000000000000                                                                                                                                                                                                        
12200000303100000076930000000204000000019372955888000000000098724067                                                                                                                                                                                                        
12200000303800000106050000000612000000000987671564000000000011198764                                                                                                                                                                                                        
12200000304300000108040000000099000000003581478284000000000010743711                                                                                                                                                                                                        
12200000304400001779790000000000000000188884953906000000000000000000                                                                                                                                                                                                        
13100000204500005985880000000000000000014914180501000000000000000000                                                                                                                                                                                                        
15000000204300000045840000000195000000516352412101000000008521215702                                                                                                                                                                                                        
32000000103200053463210000000746000000182111774000000000000024276000                                                                                                                                                                                                        
32000000103500017035610000000000000000026386868600000000000000000000                                                                                                                                                                                                        
32000000303600010876950000001548000000011685919100000000000021610200                                                                                                                                                                                                        
33000000103100000358820000000000000000005739427100000000000000000000                                                                                                                                                                                                        
33000000103200000782520000000000000000001440541800000000000000000000                                                                                                                                                                                                        
33000000103600000268470000000000000000000353647900000000000000000000                                                                                                                                                                                                        
