001800460220151100121986630000003831000002232142123984000000008316098422RICARDO SALAS                                     
11100000103100005613390000000062000000270400093700000000000016125977                                                                                                                                                                                                        
11100000304500000797960000000075000000072702137489000000000124004710                                                                                                                                                                                                        
11200000304500000943120000000288000000194961513268000000000707783852                                                                                                                                                                                                        
12100000303500000019830000000000000000000017924800000000000000000000                                                                                                                                                                                                        
12100000303800000922240000000054000000002317989500000000000001802444                                                                                                                                                                                                        
12100000303900003023460000000000000000029489400443000000000000000000                                                                                                                                                                                                        
12100000304000000773920000000000000000486409014257000000000000000000                                                                                                                                                                                                        
12100000304200001755560000000000000000002300335364000000000000000000                                                                                                                                                                                                        
12100000304300000349530000000102000000124202654036000000001458919380                                                                                                                                                                                                        
12100000304400025466230000000000000000259645090411000000000000000000                                                                                                                                                                                                        
12200000303100000062490000000205000000017679948339000000000093163427                                                                                                                                                                                                        
12200000303800000073140000000413000000000659609435000000000007678684                                                                                                                                                                                                        
12200000304300000111960000000260000000003800617925000000000025299627                                                                                                                                                                                                        
12200000304400001579480000000000000000181007624702000000000000000000                                                                                                                                                                                                        
13100000204500006231580000000000000000014667880352000000000000000000                                                                                                                                                                                                        
15000000204300000045300000000198000000376938140963000000005846481321                                                                                                                                                                                                        
32000000103200051737540000000731000000161655843000000000000019547000                                                                                                                                                                                                        
32000000103500011615690000000000000000018002165900000000000000000000                                                                                                                                                                                                        
32000000303600009842460000001443000000010058468500000000000015292000                                                                                                                                                                                                        
33000000103100000264940000000000000000004194129800000000000000000000                                                                                                                                                                                                        
33000000103200000552490000000000000000000758634000000000000000000000                                                                                                                                                                                                        
33000000303600000204320000000000000000000272907800000000000000000000                                                                                                                                                                                                        
