00180046012015100000000873000000504100000072960000000000062242350000000000000000000000342232RICARDO SALAS                                     
11000011010000000337                                                                                                                                                                                                        
11000012010000000536                                                                                                                                                                                                        
14000011010000001471                                                                                                                                                                                                        
14000012010000003570                                                                                                                                                                                                        
21000011010000000731                                                                                                                                                                                                        
21000012010000001524                                                                                                                                                                                                        
22000011010000001471                                                                                                                                                                                                        
22000012010000003570                                                                                                                                                                                                        
31000014020000059267                                                                                                                                                                                                        
32000013020002491183                                                                                                                                                                                                        
32000014020003662919                                                                                                                                                                                                        
33000013020000010866                                                                                                                                                                                                        
41000015040000342232                                                                                                                                                                                                        
