001800460220140100103296880000001769000002321675217845000000007532862157RICARDO SALAS                                     
11100000103100006115520000000020000000334559266804000000000006725217                                                                                                                                                                                                        
11100000304500001033040000000081000000112624616986000000000612554165                                                                                                                                                                                                        
11200000304500001126470000000269000000278485899003000000000676736066                                                                                                                                                                                                        
12100000303800000784580000000029000000001018077075000000000001102618                                                                                                                                                                                                        
12100000303900003379270000000000000000027916186982000000000000000000                                                                                                                                                                                                        
12100000304000000404280000000000000000467463133009000000000000000000                                                                                                                                                                                                        
12100000304300000228520000000123000000100576718194000000000719982892                                                                                                                                                                                                        
12100000304400025942710000000000000000302644364347000000000000000000                                                                                                                                                                                                        
12200000303100000053290000000057000000006129995325000000000024135587                                                                                                                                                                                                        
12200000303800000058170000000033000000000451539806000000000000962606                                                                                                                                                                                                        
12200000304300000067100000000419000000001909750065000000000044571664                                                                                                                                                                                                        
12200000304400000202860000000000000000194519812338000000000000000000                                                                                                                                                                                                        
13100000204500006073690000000000000000013540026514000000000000000000                                                                                                                                                                                                        
15000000204300000055820000000169000000320299699691000000005430737342                                                                                                                                                                                                        
31000000103200000002260000000000000000000010988000000000000000000000                                                                                                                                                                                                        
32000000103200046819520000000569000000143925482000000000000015354000                                                                                                                                                                                                        
32000000103500002566960000000000000000006762270095000000000000000000                                                                                                                                                                                                        
32000000303500000035270000000000000000000024532839000000000000000000                                                                                                                                                                                                        
32000000303600008347550000000000000000008812858772000000000000000000                                                                                                                                                                                                        
