001800460220120100003785380000000251000000018697298723000000000602640523VICTOR BRINGAS                                    
11100000103100000001000000000000000000000000020000000000000000000000                                                                                                                                                                                                        
12100000303800000515160000000251000000000747212523000000000602640523                                                                                                                                                                                                        
12100000303900000253620000000000000000000123564200000000000000000000                                                                                                                                                                                                        
12200000104300000452360000000000000000005263256400000000000000000000                                                                                                                                                                                                        
13200000104400002563240000000000000000012563245600000000000000000000                                                                                                                                                                                                        
