0018004604201101VICTOR BRINGAS                                    
178122111111015111000330000330000003315200034890000340000330000003300000034000000340000330000003300000034000000340000330000003300000034000                                                                                                                                                                                                        
178122111111015211000000000001000000350000070000000000000000000000000000000000000000000001000000350000070000000000000001000000350000070000OTROS CANALES: INSTRUCCIÓN DIRECTA                                                                                                                                                                      
178122111111015311000000000005000001167000350000000000000000000000000000000000000000000005000001167000350000000000000005000001167000350000OTROS CANALES: INSTRUCCIÓN DIRECTA                                                                                                                                                                      
178222111111015111000000000000000000100000001000000000000000000000000000000000000000000000000000100000001000000000000000000000100000001000OTROS CANALES: INSTRUCCIÓN DIRECTA                                                                                                                                                                      
178222111111015211000000000005000001400000280000000000000000000000000000000000000000000005000001400000280000000000000005000001400000280000OTROS CANALES: INSTRUCCIÓN DIRECTA                                                                                                                                                                      
178222111111015311000000000015000002800000840000000000000000000000000000000000000000000015000002800000840000000000000015000002800000840000OTROS CANALES: INSTRUCCIÓN DIRECTA                                                                                                                                                                      
