001800460220150400122194370000003663000002088066433917000000006970212923RICARDO SALAS                                     
11100000103100005180390000000030000000247036069748000000000003369354                                                                                                                                                                                                        
11100000304500000688510000000084000000061970600217000000000130528424                                                                                                                                                                                                        
11200000304500000802190000000210000000187336528847000000000809087267                                                                                                                                                                                                        
12100000303500000010760000000000000000000010375200000000000000000000                                                                                                                                                                                                        
12100000303800000894970000000041000000002152543600000000000000699521                                                                                                                                                                                                        
12100000303900003032520000000000000000028545696342000000000000000000                                                                                                                                                                                                        
12100000304000000525010000000000000000511997695043000000000000000000                                                                                                                                                                                                        
12100000304300000222070000000124000000102243016759000000001468262900                                                                                                                                                                                                        
12100000304400035876620000000000000000308176196220000000000000000000                                                                                                                                                                                                        
12200000303100000052980000000212000000008488288582000000000089384951                                                                                                                                                                                                        
12200000303800000069060000000443000000000584537921000000000008447060                                                                                                                                                                                                        
12200000304300000083790000000485000000002500530708000000000049231656                                                                                                                                                                                                        
12200000304400001189610000000000000000136328052482000000000000000000                                                                                                                                                                                                        
13100000204500006331490000000000000000014285567009000000000000000000                                                                                                                                                                                                        
15000000204300000039140000000293000000303337473139000000004379973090                                                                                                                                                                                                        
32000000103200048708190000000633000000146432979000000000000021082000                                                                                                                                                                                                        
32000000103500008581920000000000000000013063927400000000000000000000                                                                                                                                                                                                        
32000000303600009218290000001108000000009472065000000000000010146700                                                                                                                                                                                                        
33000000103100000206310000000000000000003394344000000000000000000000                                                                                                                                                                                                        
33000000103200000344260000000000000000000493574600000000000000000000                                                                                                                                                                                                        
33000000303600000136290000000000000000000216372100000000000000000000                                                                                                                                                                                                        
