001800460220130300085175520000002046000002064088754242000000010761158338RICARDO SALAS                                     
11100000103100005853420000000006000000295131618919000000000000218348                                                                                                                                                                                                        
11100000304500000689530000000059000000083320780409000000000337225062                                                                                                                                                                                                        
11200000304500000883920000000200000000267159570769000000000821271189                                                                                                                                                                                                        
12100000303800000592860000000027000000000744646822000000000000468936                                                                                                                                                                                                        
12100000303900003056620000000000000000028232980360000000000000000000                                                                                                                                                                                                        
12100000304000000570040000000000000000320162656296000000000000000000                                                                                                                                                                                                        
12100000304300000133180000000102000000262348991986000000004869912509                                                                                                                                                                                                        
12100000304400021470190000000000000000201398235387000000000000000000                                                                                                                                                                                                        
12200000303100000037410000000145000000003894154270000000000058895172                                                                                                                                                                                                        
12200000303800000039220000000290000000000299162100000000000004935710                                                                                                                                                                                                        
12200000304300000051900000000436000000001153882248000000000078838871                                                                                                                                                                                                        
12200000304400000663640000000000000000072188883174000000000000000000                                                                                                                                                                                                        
13100000204500005128750000000000000000012362051427000000000000000000                                                                                                                                                                                                        
15000000204300000035340000000079000000384208571075000000004570248541                                                                                                                                                                                                        
31000000103200000004150000000000000000000015789000000000000000000000                                                                                                                                                                                                        
32000000103200045965350000000702000000131466780000000000000019144000                                                                                                                                                                                                        
