001800460220111000088615120000004517000001456939025725000000016378228273RICARDO SALAS                                     
11100000103100006108710000000052000000220352308239000000000012530544                                                                                                                                                                                                        
11100000304500000598240000000062000000080126006785000000000059396796                                                                                                                                                                                                        
11200000304500000965610000000265000000211647473884000000000947978293                                                                                                                                                                                                        
12100000303800000425900000002506000000000767439900000000000006579700                                                                                                                                                                                                        
12100000303900001723430000000000000000009318067360000000000000000000                                                                                                                                                                                                        
12100000304000000246130000000000000000284694879759000000000000000000                                                                                                                                                                                                        
12100000304300000151300000000122000000086131223926000000000934776456                                                                                                                                                                                                        
12100000304400024794930000000000000000189231235338000000000000000000                                                                                                                                                                                                        
12200000303100000024710000000102000000001923284430000000000030699881                                                                                                                                                                                                        
12200000303800000032020000000206000000000223606940000000000002355531                                                                                                                                                                                                        
12200000304300000040140000000134000000000705975510000000000003897885                                                                                                                                                                                                        
12200000304400000666570000000000000000055067825280000000000000000000                                                                                                                                                                                                        
13100000204500005369070000000000000000011481309183000000000000000000                                                                                                                                                                                                        
15000000204300000031560000000147000000192609100191000000014359197187                                                                                                                                                                                                        
31000000103200004148950000000000000000002613436000000000000000000000                                                                                                                                                                                                        
32000000103200043287850000000921000000110045853000000000000020816000                                                                                                                                                                                                        
