001800460220150900119892700000003785000002297016693108000000009049921350RICARDO SALAS                                     
11100000103100005691750000000062000000273539010278000000000003405696                                                                                                                                                                                                        
11100000304500000823850000000067000000069577491869000000000118608802                                                                                                                                                                                                        
11200000304500000926400000000251000000223942192946000000000522577807                                                                                                                                                                                                        
12100000303500000018640000000000000000000013203300000000000000000000                                                                                                                                                                                                        
12100000303800000862530000000050000000002141615751000000000001584037                                                                                                                                                                                                        
12100000303900003281750000000000000000031367106671000000000000000000                                                                                                                                                                                                        
12100000304000000733750000000000000000540769618884000000000000000000                                                                                                                                                                                                        
12100000304200001516630000000000000000001962197730000000000000000000                                                                                                                                                                                                        
12100000304300000348420000000132000000111637855865000000002141646661                                                                                                                                                                                                        
12100000304400025207940000000000000000296733786632000000000000000000                                                                                                                                                                                                        
12200000303100000060450000000213000000015655427308000000000129857760                                                                                                                                                                                                        
12200000303800000068650000000404000000000610060257000000000008491215                                                                                                                                                                                                        
12200000304300000101410000000602000000002774563183000000000038787354                                                                                                                                                                                                        
12200000304400001666660000000000000000160747363316000000000000000000                                                                                                                                                                                                        
13100000204500006257680000000000000000014546531725000000000000000000                                                                                                                                                                                                        
15000000204300000049490000000273000000363275436293000000006054551318                                                                                                                                                                                                        
32000000103200051277930000000682000000156522533000000000000019377000                                                                                                                                                                                                        
32000000103500010736470000000000000000016388963700000000000000000000                                                                                                                                                                                                        
32000000303600009362950000001049000000009829411300000000000011033700                                                                                                                                                                                                        
33000000103100000266170000000000000000004083352800000000000000000000                                                                                                                                                                                                        
33000000103200000471790000000000000000000660772300000000000000000000                                                                                                                                                                                                        
33000000303600000161390000000000000000000238198000000000000000000000                                                                                                                                                                                                        
