001800460220111100081467840000002174000001428458574953000000013975547509RICARDO SALAS                                     
11100000103100006222900000000061000000217722290110000000000026189796                                                                                                                                                                                                        
11100000304500000640380000000086000000070404616140000000000205552266                                                                                                                                                                                                        
11200000304500001072640000000338000000243232376124000000000757569762                                                                                                                                                                                                        
12100000303800000472250000000126000000000765790800000000000001283000                                                                                                                                                                                                        
12100000303900001657450000000000000000010935778481000000000000000000                                                                                                                                                                                                        
12100000304000000277500000000000000000231233828865000000000000000000                                                                                                                                                                                                        
12100000304300000165360000000159000000078525716399000000006182062200                                                                                                                                                                                                        
12100000304400023960510000000000000000185434974938000000000000000000                                                                                                                                                                                                        
12200000303100000025240000000088000000002322378846000000000022584993                                                                                                                                                                                                        
12200000303800000034810000000257000000000241974366000000000003466533                                                                                                                                                                                                        
12200000304300000045530000000088000000000778276208000000000004173458                                                                                                                                                                                                        
12200000304400000766270000000000000000066781817193000000000000000000                                                                                                                                                                                                        
13100000204500005397650000000000000000011548455808000000000000000000                                                                                                                                                                                                        
15000000204300000037740000000128000000205557136675000000006753568501                                                                                                                                                                                                        
31000000103200001238270000000000000000002493880000000000000000000000                                                                                                                                                                                                        
32000000103200039453340000000843000000100479284000000000000019097000                                                                                                                                                                                                        
