00180046012015090000000865000000486500000071230000000000061970670000000000000000000000328236RICARDO SALAS                                     
11000011010000000334                                                                                                                                                                                                        
11000012010000000531                                                                                                                                                                                                        
14000011010000001428                                                                                                                                                                                                        
14000012010000003437                                                                                                                                                                                                        
21000011010000000731                                                                                                                                                                                                        
21000012010000001527                                                                                                                                                                                                        
22000011010000001428                                                                                                                                                                                                        
22000012010000003437                                                                                                                                                                                                        
31000014020000059347                                                                                                                                                                                                        
32000013020002652320                                                                                                                                                                                                        
32000014020003475161                                                                                                                                                                                                        
33000013020000010239                                                                                                                                                                                                        
41000015040000328236                                                                                                                                                                                                        
