001800460220150100109387580000002668000002245981004996000000004831874713RICARDO SALAS                                     
11100000103100004414520000000026000000262014224582000000000003211584                                                                                                                                                                                                        
11100000304500000922760000000071000000083597775069000000000091320617                                                                                                                                                                                                        
11200000304500000854840000000219000000207745766916000000000813794818                                                                                                                                                                                                        
12100000303500000011970000000000000000000011188200000000000000000000                                                                                                                                                                                                        
12100000303800000920320000000003000000001937409500000000000000018390                                                                                                                                                                                                        
12100000303900002739310000000000000000020914766631000000000000000000                                                                                                                                                                                                        
12100000304000000421330000000000000000495681928330000000000000000000                                                                                                                                                                                                        
12100000304300000197910000000116000000177339871645000000001189078148                                                                                                                                                                                                        
12100000304400021177360000000000000000288859231068000000000000000000                                                                                                                                                                                                        
12200000303100000062470000000200000000013444313341000000000094138056                                                                                                                                                                                                        
12200000303800000065190000000398000000000517803245000000000006417982                                                                                                                                                                                                        
12200000304300000075460000000089000000002457224619000000000010037051                                                                                                                                                                                                        
12200000304400001134250000000000000000202868219040000000000000000000                                                                                                                                                                                                        
13100000204500006251700000000000000000013904159984000000000000000000                                                                                                                                                                                                        
15000000204300000038450000000145000000290551733981000000002597114567                                                                                                                                                                                                        
32000000103200051532970000000596000000156915940000000000000017966000                                                                                                                                                                                                        
32000000103500008061990000000000000000012389349645000000000000000000                                                                                                                                                                                                        
32000000303600009920540000000805000000010751026400000000000008777500                                                                                                                                                                                                        
33000000103100000183010000000000000000003432356300000000000000000000                                                                                                                                                                                                        
33000000103200000281800000000000000000000440417300000000000000000000                                                                                                                                                                                                        
33000000303600000119430000000000000000000206299200000000000000000000                                                                                                                                                                                                        
