00180046012016020000000893000000540200000072460000000000063792410000000000000000000000408991RICARDO SALAS                                     
11000011010000000347                                                                                                                                                                                                        
11000012010000000546                                                                                                                                                                                                        
14000011010000001541                                                                                                                                                                                                        
14000012010000003861                                                                                                                                                                                                        
21000011010000000578                                                                                                                                                                                                        
21000012010000001266                                                                                                                                                                                                        
22000011010000001541                                                                                                                                                                                                        
22000012010000003861                                                                                                                                                                                                        
31000014020000059033                                                                                                                                                                                                        
32000013020002438960                                                                                                                                                                                                        
32000014020003872126                                                                                                                                                                                                        
33000013020000009122                                                                                                                                                                                                        
41000015040000408991                                                                                                                                                                                                        
