00180046012016060000000892000000568100000076450000000000066465580000000000000000000000503122RICARDO SALAS                                     
11000011010000000338                                                                                                                                                                                                        
11000012010000000554                                                                                                                                                                                                        
14000011010000001506                                                                                                                                                                                                        
14000012010000004175                                                                                                                                                                                                        
21000011010000000647                                                                                                                                                                                                        
21000012010000001317                                                                                                                                                                                                        
22000011010000001506                                                                                                                                                                                                        
22000012010000004175                                                                                                                                                                                                        
31000014020000058769                                                                                                                                                                                                        
32000013020002507500                                                                                                                                                                                                        
32000014020004069848                                                                                                                                                                                                        
33000013020000010441                                                                                                                                                                                                        
41000015040000503122                                                                                                                                                                                                        
