001800460220150300115368300000003719000002160526587803000000008357307490RICARDO SALAS                                     
11100000103100005200600000000017000000296198717837000000000011131065                                                                                                                                                                                                        
11100000304500000665240000000065000000064950441374000000000160139659                                                                                                                                                                                                        
11200000304500000805470000000221000000196298080120000000000409355287                                                                                                                                                                                                        
12100000303500000012390000000000000000000011406100000000000000000000                                                                                                                                                                                                        
12100000303800000998070000000046000000002207133100000000000001068908                                                                                                                                                                                                        
12100000303900003212830000000000000000029610425788000000000000000000                                                                                                                                                                                                        
12100000304000000558110000000000000000491346168799000000000000000000                                                                                                                                                                                                        
12100000304300000202020000000136000000180401017133000000002927784613                                                                                                                                                                                                        
12100000304400022034690000000000000000249213466520000000000000000000                                                                                                                                                                                                        
12200000303100000061930000000221000000011256577117000000000098317869                                                                                                                                                                                                        
12200000303800000076190000000498000000000607064890000000000007941858                                                                                                                                                                                                        
12200000304300000088200000000487000000002628389459000000000051627382                                                                                                                                                                                                        
12200000304400001105220000000000000000124273906822000000000000000000                                                                                                                                                                                                        
13100000204500006353690000000000000000014262829424000000000000000000                                                                                                                                                                                                        
15000000204300000046350000000273000000304672471920000000004648178449                                                                                                                                                                                                        
32000000103200053679730000000642000000162756357000000000000020685000                                                                                                                                                                                                        
32000000103500009494930000000000000000014443500300000000000000000000                                                                                                                                                                                                        
32000000303600010089270000001113000000010889756300000000000021077400                                                                                                                                                                                                        
33000000103100000209280000000000000000003757684800000000000000000000                                                                                                                                                                                                        
33000000103200000329900000000000000000000491700800000000000000000000                                                                                                                                                                                                        
33000000303600000144190000000000000000000249492200000000000000000000                                                                                                                                                                                                        
