00180046012014050000000817000000299600000051560000000000052481130000000000000000000000000000RICARDO SALAS                                     
11000011010000000316                                                                                                                                                                                                        
11000012010000000501                                                                                                                                                                                                        
14000011010000001012                                                                                                                                                                                                        
14000012010000001984                                                                                                                                                                                                        
21000011010000000710                                                                                                                                                                                                        
21000012010000001450                                                                                                                                                                                                        
22000011010000001012                                                                                                                                                                                                        
22000012010000001984                                                                                                                                                                                                        
31000013020000000002                                                                                                                                                                                                        
31000014020000060874                                                                                                                                                                                                        
32000013020002520984                                                                                                                                                                                                        
32000014020002659672                                                                                                                                                                                                        
33000013020000006581                                                                                                                                                                                                        
