001800460220140400099342320000002672000001956761315565000000007630587765RICARDO SALAS                                     
11100000103100005522860000000018000000288326093055000000000003263614                                                                                                                                                                                                        
11100000304500000787440000000048000000090426882460000000000119117147                                                                                                                                                                                                        
11200000304500000867840000000117000000204197968833000000000362599007                                                                                                                                                                                                        
12100000303500000042450000000000000000000028709016000000000000000000                                                                                                                                                                                                        
12100000303800000715090000000034000000000982207278000000000001189781                                                                                                                                                                                                        
12100000303900003243310000000000000000028820111834000000000000000000                                                                                                                                                                                                        
12100000304000000461690000000000000000417238154928000000000000000000                                                                                                                                                                                                        
12100000304300000183050000000143000000124065801656000000000930454721                                                                                                                                                                                                        
12100000304400024890730000000000000000242469848964000000000000000000                                                                                                                                                                                                        
12200000303100000043200000000153000000005360617805000000000068478718                                                                                                                                                                                                        
12200000303800000055540000000344000000000421836821000000000006167479                                                                                                                                                                                                        
12200000304300000066840000000426000000002057552260000000000042641972                                                                                                                                                                                                        
12200000304400000946190000000000000000109740472253000000000000000000                                                                                                                                                                                                        
13100000204500006135070000000000000000013389361077000000000000000000                                                                                                                                                                                                        
15000000204300000043850000000163000000288349376602000000006072630068                                                                                                                                                                                                        
32000000103200042227920000000640000000123120359000000000000017382000                                                                                                                                                                                                        
32000000103500005225630000000000000000008055953605000000000000000000                                                                                                                                                                                                        
32000000303600007738160000000586000000008096396886000000000006663258                                                                                                                                                                                                        
33000000103100000055760000000000000000001423162508000000000000000000                                                                                                                                                                                                        
33000000103200000057920000000000000000000117621201000000000000000000                                                                                                                                                                                                        
33000000303600000031780000000000000000000072827523000000000000000000                                                                                                                                                                                                        
