00180046012014020000000806000000976600000047930000000000050616450000000000000000000000000000RICARDO SALAS                                     
11000011010000000302                                                                                                                                                                                                        
11000012010000000504                                                                                                                                                                                                        
14000011010000000841                                                                                                                                                                                                        
14000012010000001773                                                                                                                                                                                                        
21000011010000000734                                                                                                                                                                                                        
21000012010000001445                                                                                                                                                                                                        
22000011010000000841                                                                                                                                                                                                        
22000012010000001773                                                                                                                                                                                                        
31000013020000000001                                                                                                                                                                                                        
31000014020000061106                                                                                                                                                                                                        
32000013020002227895                                                                                                                                                                                                        
32000014020002772643                                                                                                                                                                                                        
