001800460220150700145020970000004526000002436176760845000000008204578591RICARDO SALAS                                     
11100000103100005809520000000071000000276654023938000000000004962284                                                                                                                                                                                                        
11100000304500000747800000000078000000070529322723000000000170632324                                                                                                                                                                                                        
11200000304500000869380000000219000000208788221519000000000750206493                                                                                                                                                                                                        
12100000303500000017310000000000000000000013200200000000000000000000                                                                                                                                                                                                        
12100000303800000919190000000074000000002293608000000000000002145528                                                                                                                                                                                                        
12100000303900003953800000000000000000038910787159000000000000000000                                                                                                                                                                                                        
12100000304000000668690000000000000000588650058881000000000000000000                                                                                                                                                                                                        
12100000304200018803050000000000000000001706991100000000000000000000                                                                                                                                                                                                        
12100000304300000319850000000127000000124483156289000000001468799362                                                                                                                                                                                                        
12100000304400025195750000000000000000346119837907000000000000000000                                                                                                                                                                                                        
12200000303100000060910000000189000000014904756628000000000060275947                                                                                                                                                                                                        
12200000303800000071170000000439000000000639566820000000000008505213                                                                                                                                                                                                        
12200000304300000094310000001314000000002749235826000000000076455556                                                                                                                                                                                                        
12200000304400001533040000000000000000159176720048000000000000000000                                                                                                                                                                                                        
13100000204500006337700000000000000000014569866775000000000000000000                                                                                                                                                                                                        
15000000204300000049370000000215000000371538810417000000005632380684                                                                                                                                                                                                        
32000000103200057159070000000641000000181612185000000000000017507000                                                                                                                                                                                                        
32000000103500010693980000000000000000016324101700000000000000000000                                                                                                                                                                                                        
32000000303600010894280000001159000000012297521800000000000012708200                                                                                                                                                                                                        
33000000103100000218080000000000000000003337647273000000000000000000                                                                                                                                                                                                        
33000000103200000434480000000000000000000604947327000000000000000000                                                                                                                                                                                                        
33000000303600000170240000000000000000000272193515000000000000000000                                                                                                                                                                                                        
