0018004604201311VICTOR BRINGAS                                    
178122111111015111000014000000000000000000000000000000000000000000000000000000000014000000000000000000000000000014000000000000000000000000OTROS CANALES: INSTRUCCIÓN DIRECTA                                                                                                                                                                      
178122111111015211000000000001000000350000070000000000000000000000000000000000000000000001000000350000070000000000000001000000350000070000OTROS CANALES: INSTRUCCIÓN DIRECTA                                                                                                                                                                      
178122111111015311000000000005000001167000350000000000000000000000000000000000000000000005000001167000350000000000000005000001167000350000OTROS CANALES: INSTRUCCIÓN DIRECTA                                                                                                                                                                      
178122111111025111000005000000000000000000000000000000000000000000000000000000000005000000000000000000000000000005000000000000000000000000OTROS CANALES: INSTRUCCIÓN DIRECTA                                                                                                                                                                      
178122111111025211000000000001000000110000022000000000000000000000000000000000000000000001000000110000022000000000000001000000110000022000OTROS CANALES: INSTRUCCIÓN DIRECTA                                                                                                                                                                      
178122111111025311000000000005000000370000110000000000000000000000000000000000000000000005000000370000110000000000000005000000370000110000OTROS CANALES: INSTRUCCIÓN DIRECTA                                                                                                                                                                      
178222111111015111000008000000000000000000000000000000000000000000000000000000000008000000000000000000000000000008000000000000000000000000OTROS CANALES: INSTRUCCIÓN DIRECTA                                                                                                                                                                      
178222111111015211000000000005000001400000210000000000000000000000000000000000000000000005000001400000210000000000000005000001400000210000OTROS CANALES: INSTRUCCIÓN DIRECTA                                                                                                                                                                      
178222111111015311000000000015000002800000210000000000000000000000000000000000000000000015000002800000210000000000000015000002800000210000OTROS CANALES: INSTRUCCIÓN DIRECTA                                                                                                                                                                      
