001800460220151200159260880000004120000003656589957239000000019157872907RICARDO SALAS                                     
11100000103100008021900000000078000000416386224671000000000008183342                                                                                                                                                                                                        
11100000304500001036270000000061000000099825797572000000000156494523                                                                                                                                                                                                        
11200000304500001101870000000269000000189872491213000000001195148041                                                                                                                                                                                                        
12100000303500000028730000000000000000000022360200000000000000000000                                                                                                                                                                                                        
12100000303800001047280000000060000000002780977400000000000001290692                                                                                                                                                                                                        
12100000303900004460600000000000000000045627338154000000000000000000                                                                                                                                                                                                        
12100000304000001030510000000000000001003914652710000000000000000000                                                                                                                                                                                                        
12100000304200002165020000000000000000002988446556000000000000000000                                                                                                                                                                                                        
12100000304300000588410000000108000000388108582333000000002352077882                                                                                                                                                                                                        
12100000304400042013740000000000000000410086019748000000000000000000                                                                                                                                                                                                        
12200000303100000067240000000245000000018566948713000000000095819772                                                                                                                                                                                                        
12200000303800000083340000000470000000000798471010000000000009552667                                                                                                                                                                                                        
12200000304300000119170000000278000000003754073452000000000038678370                                                                                                                                                                                                        
12200000304400002853950000000000000000336440288186000000000000000000                                                                                                                                                                                                        
13100000204500006253160000000000000000014812412375000000000000000000                                                                                                                                                                                                        
15000000204300000060780000000343000000470301850946000000015254613518                                                                                                                                                                                                        
32000000103200059875500000000718000000209681991000000000000025974000                                                                                                                                                                                                        
32000000103500014489970000000000000000022456771200000000000000000000                                                                                                                                                                                                        
32000000303600012937080000001490000000014786231900000000000020040100                                                                                                                                                                                                        
33000000103100000267980000000000000000004334695000000000000000000000                                                                                                                                                                                                        
33000000103200000538960000000000000000000706123700000000000000000000                                                                                                                                                                                                        
33000000303600000219420000000000000000000337209200000000000000000000                                                                                                                                                                                                        
