00180046012016040000000894000000552500000074850000000000065281440000000000000000000000455036RICARDO SALAS                                     
11000011010000000345                                                                                                                                                                                                        
11000012010000000549                                                                                                                                                                                                        
14000011010000001530                                                                                                                                                                                                        
14000012010000003995                                                                                                                                                                                                        
21000011010000000640                                                                                                                                                                                                        
21000012010000001320                                                                                                                                                                                                        
22000011010000001530                                                                                                                                                                                                        
22000012010000003995                                                                                                                                                                                                        
31000014020000058879                                                                                                                                                                                                        
32000013020002467996                                                                                                                                                                                                        
32000014020003990915                                                                                                                                                                                                        
33000013020000010354                                                                                                                                                                                                        
41000015040000455036                                                                                                                                                                                                        
