001800460220110500087270800000009338000001430367823268000000006736002081RICARDO SALAS                                     
11100000103100005477140000000052000000168582858786000000000021216513                                                                                                                                                                                                        
11100000304500000525270000000060000000052489416238000000000100617595                                                                                                                                                                                                        
11200000304500000914010000000282000000212815425868000000000563897680                                                                                                                                                                                                        
12100000303800000311060000007251000000000641023300000000000016090200                                                                                                                                                                                                        
12100000303900001214120000000000000000005498727575000000000000000000                                                                                                                                                                                                        
12100000304000000223610000000000000000307033889839000000000000000000                                                                                                                                                                                                        
12100000304300000158610000000153000000067456246873000000001749464411                                                                                                                                                                                                        
12100000304400029402820000000000000000194298035700000000000000000000                                                                                                                                                                                                        
12200000303100000023770000000116000000002011666026000000000020315212                                                                                                                                                                                                        
12200000303800000034790000000252000000000232917001000000000003374540                                                                                                                                                                                                        
12200000304300000047850000000097000000001090479423000000000007772719                                                                                                                                                                                                        
12200000304400000577190000000000000000057753829080000000000000000000                                                                                                                                                                                                        
13100000204500005626410000000000000000011536646881000000000000000000                                                                                                                                                                                                        
15000000204300000030300000000126000000244296875678000000004232409211                                                                                                                                                                                                        
31000000103200000892640000000000000000001845671000000000000000000000                                                                                                                                                                                                        
32000000103200041811210000000949000000102784114000000000000020844000                                                                                                                                                                                                        
