001800460220151000136751030000003765000002395939407418000000010167184318RICARDO SALAS                                     
11100000103100005933920000000073000000283628463635000000000006271823                                                                                                                                                                                                        
11100000304500000793690000000069000000075400970713000000000174484444                                                                                                                                                                                                        
11200000304500000919470000000237000000206891949866000000000543459920                                                                                                                                                                                                        
12100000303500000021910000000000000000000019764300000000000000000000                                                                                                                                                                                                        
12100000303800000912090000000044000000002340774200000000000001370277                                                                                                                                                                                                        
12100000303900003335290000000000000000032921623425000000000000000000                                                                                                                                                                                                        
12100000304000000754540000000000000000569800714719000000000000000000                                                                                                                                                                                                        
12100000304200001747080000000000000000002225444980000000000000000000                                                                                                                                                                                                        
12100000304300000356610000000108000000114470497358000000000974022094                                                                                                                                                                                                        
12100000304400036845100000000000000000293680414069000000000000000000                                                                                                                                                                                                        
12200000303100000059780000000200000000015174960183000000000091449674                                                                                                                                                                                                        
12200000303800000070700000000435000000000636575044000000000008939392                                                                                                                                                                                                        
12200000304300000102260000000316000000002864033239000000000042854003                                                                                                                                                                                                        
12200000304400001667430000000000000000175721312163000000000000000000                                                                                                                                                                                                        
13100000204500006250270000000000000000014622244237000000000000000000                                                                                                                                                                                                        
15000000204300000055560000000276000000405205387287000000008288408291                                                                                                                                                                                                        
32000000103200054166060000000706000000167086105000000000000021695000                                                                                                                                                                                                        
32000000103500011885700000000000000000018420621200000000000000000000                                                                                                                                                                                                        
32000000303600009977940000001301000000010228499500000000000014229400                                                                                                                                                                                                        
33000000103100000184600000000000000000003725387900000000000000000000                                                                                                                                                                                                        
33000000103200000526810000000000000000000632588000000000000000000000                                                                                                                                                                                                        
33000000303600000184220000000000000000000241076400000000000000000000                                                                                                                                                                                                        
