00180046012013110000000758000000222700000044270000000000049429220000000000000000000000000000RICARDO SALAS                                     
11000011010000000279                                                                                                                                                                                                        
11000012010000000479                                                                                                                                                                                                        
14000011010000000729                                                                                                                                                                                                        
14000012010000001498                                                                                                                                                                                                        
21000011010000000735                                                                                                                                                                                                        
21000012010000001465                                                                                                                                                                                                        
22000011010000000729                                                                                                                                                                                                        
22000012010000001498                                                                                                                                                                                                        
31000013020000000124                                                                                                                                                                                                        
31000014020000061247                                                                                                                                                                                                        
32000013020002477356                                                                                                                                                                                                        
32000014020002404195                                                                                                                                                                                                        
