00180046012014120000000834000000375100000058830000000000056068570000000000000000000000000000RICARDO SALAS                                     
11000011010000000324                                                                                                                                                                                                        
11000012010000000510                                                                                                                                                                                                        
14000011010000001148                                                                                                                                                                                                        
14000012010000002603                                                                                                                                                                                                        
21000011010000000716                                                                                                                                                                                                        
21000012010000001416                                                                                                                                                                                                        
22000011010000001148                                                                                                                                                                                                        
22000012010000002603                                                                                                                                                                                                        
31000014020000060234                                                                                                                                                                                                        
32000013020002746167                                                                                                                                                                                                        
32000014020002791830                                                                                                                                                                                                        
33000013020000008626                                                                                                                                                                                                        
