001800460220150500130564970000003451000002028817037678000000005707874556RICARDO SALAS                                     
11100000103100005252710000000037000000242784895995000000000003177751                                                                                                                                                                                                        
11100000304500000683890000000117000000060479507387000000000279629528                                                                                                                                                                                                        
11200000304500000838440000000260000000170196972584000000000559850127                                                                                                                                                                                                        
12100000303500000016430000000000000000000012926100000000000000000000                                                                                                                                                                                                        
12100000303800000919700000000033000000002193395400000000000000815314                                                                                                                                                                                                        
12100000303900003181000000000000000000030065733618000000000000000000                                                                                                                                                                                                        
12100000304000000577890000000000000000485994043641000000000000000000                                                                                                                                                                                                        
12100000304200013201000000000000000000001309853958000000000000000000                                                                                                                                                                                                        
12100000304300000240340000000130000000100833821755000000002358481504                                                                                                                                                                                                        
12100000304400022561640000000000000000258176354551000000000000000000                                                                                                                                                                                                        
12200000303100000051710000000163000000010532211810000000000063643237                                                                                                                                                                                                        
12200000303800000068270000000464000000000575557081000000000007619882                                                                                                                                                                                                        
12200000304300000080680000000080000000002568279788000000000009559265                                                                                                                                                                                                        
12200000304400001244320000000000000000128706808545000000000000000000                                                                                                                                                                                                        
13100000204500006337420000000000000000014380979768000000000000000000                                                                                                                                                                                                        
15000000204300000042150000000205000000327090974497000000002386569648                                                                                                                                                                                                        
32000000103200054436360000000794000000162770737000000000000025598000                                                                                                                                                                                                        
32000000103500009976840000000000000000014982130100000000000000000000                                                                                                                                                                                                        
32000000303600010097240000001168000000010723645200000000000012930300                                                                                                                                                                                                        
33000000103100000222720000000000000000003612281800000000000000000000                                                                                                                                                                                                        
33000000103200000383790000000000000000000574040100000000000000000000                                                                                                                                                                                                        
33000000303600000150430000000000000000000251887000000000000000000000                                                                                                                                                                                                        
