00180046012016070000000898000000575400000077060000000000066930610000000000000000000000540316RICARDO SALAS                                     
11000011010000000341                                                                                                                                                                                                        
11000012010000000557                                                                                                                                                                                                        
14000011010000001492                                                                                                                                                                                                        
14000012010000004262                                                                                                                                                                                                        
21000011010000000636                                                                                                                                                                                                        
21000012010000001316                                                                                                                                                                                                        
22000011010000001492                                                                                                                                                                                                        
22000012010000004262                                                                                                                                                                                                        
31000014020000058708                                                                                                                                                                                                        
32000013020002702703                                                                                                                                                                                                        
32000014020003922213                                                                                                                                                                                                        
33000013020000009437                                                                                                                                                                                                        
41000015040000540316                                                                                                                                                                                                        
