001800460220160500131716730000003813000002125824499783000000006706612633RICARDO SALAS                                     
11100000103100005507830000000025000000258287259852000000000002332820                                                                                                                                                                                                        
11100000304500000748510000000076000000066612092637000000000184371977                                                                                                                                                                                                        
11200000304500000931220000000367000000286797365955000000000830572027                                                                                                                                                                                                        
12100000303500000029460000000000000000000023268900000000000000000000                                                                                                                                                                                                        
12100000303800001013330000000078000000002977378100000000000002792248                                                                                                                                                                                                        
12100000303900003555010000000000000000033269563606000000000000000000                                                                                                                                                                                                        
12100000304000000752240000000000000000469522403713000000000000000000                                                                                                                                                                                                        
12100000304200002729620000000000000000004215895398000000000000000000                                                                                                                                                                                                        
12100000304300000360530000000074000000106472849225000000000999395159                                                                                                                                                                                                        
12100000304400024934680000000000000000281852465193000000000000000000                                                                                                                                                                                                        
12200000303100000070080000000225000000017550749485000000000111560775                                                                                                                                                                                                        
12200000303800000096200000000509000000000906240987000000000008702296                                                                                                                                                                                                        
12200000304300000106990000000328000000003553823733000000000037415167                                                                                                                                                                                                        
12200000304400001614390000000000000000173644411816000000000000000000                                                                                                                                                                                                        
13100000204500006085630000000000000000014868496325000000000000000000                                                                                                                                                                                                        
15000000204300000049410000000178000000343702460258000000004478226864                                                                                                                                                                                                        
32000000103200053394070000000853000000017664721300000000000032971000                                                                                                                                                                                                        
32000000103500017043130000000000000000025599281600000000000000000000                                                                                                                                                                                                        
32000000303600011371460000001100000000011684805200000000000018272300                                                                                                                                                                                                        
33000000103100000328320000000000000000005285296300000000000000000000                                                                                                                                                                                                        
33000000103200000748600000000000000000000984485300000000000000000000                                                                                                                                                                                                        
33000000103600000246020000000000000000000349184900000000000000000000                                                                                                                                                                                                        
