00180046012014060000000815000000309500000052600000000000053012130000000000000000000000000000RICARDO SALAS                                     
11000011010000000316                                                                                                                                                                                                        
11000012010000000499                                                                                                                                                                                                        
14000011010000001033                                                                                                                                                                                                        
14000012010000002062                                                                                                                                                                                                        
21000011010000000734                                                                                                                                                                                                        
21000012010000001431                                                                                                                                                                                                        
22000011010000001033                                                                                                                                                                                                        
22000012010000002062                                                                                                                                                                                                        
31000013020000000001                                                                                                                                                                                                        
31000014020000060801                                                                                                                                                                                                        
32000013020002336556                                                                                                                                                                                                        
32000014020002897489                                                                                                                                                                                                        
33000013020000006366                                                                                                                                                                                                        
