00180046012015080000000869000000469800000069580000000000061493340000000000000000000000292058RICARDO SALAS                                     
11000011010000000331                                                                                                                                                                                                        
11000012010000000538                                                                                                                                                                                                        
14000011010000001396                                                                                                                                                                                                        
14000012010000003302                                                                                                                                                                                                        
21000011010000000729                                                                                                                                                                                                        
21000012010000001531                                                                                                                                                                                                        
22000011010000001396                                                                                                                                                                                                        
22000012010000003302                                                                                                                                                                                                        
31000014020000059473                                                                                                                                                                                                        
32000013020002472581                                                                                                                                                                                                        
32000014020003609811                                                                                                                                                                                                        
33000013020000007469                                                                                                                                                                                                        
41000015040000292058                                                                                                                                                                                                        
