001800460220110100078513160000007883000001444579453348000000005162851854VICTOR BRINGAS                                    
11100000103100003966840000000057000000182234773857000000000011396415                                                                                                                                                                                                        
11100000103200000000330000000033000000000000006600000000000000006600                                                                                                                                                                                                        
11100000303100000477120000000000000000065438381590000000000000000000                                                                                                                                                                                                        
11200000303100000970720000000085000000220064064106000000000078451038                                                                                                                                                                                                        
12100000303800000277640000006644000000000546181200000000000014440700                                                                                                                                                                                                        
12100000303900000879070000000000000000004924599747000000000000000000                                                                                                                                                                                                        
12100000304000000128780000000000000000241510325639000000000000000000                                                                                                                                                                                                        
12100000304300000085520000000086000000081838366703000000001401446474                                                                                                                                                                                                        
12100000304400022107910000000000000000194033533301000000000000000000                                                                                                                                                                                                        
12200000303100000012020000000017000000001224793270000000000009492401                                                                                                                                                                                                        
12200000303800000017140000000011000000000107625140000000000000227687                                                                                                                                                                                                        
12200000304300000027510000000015000000000679589418000000000001887611                                                                                                                                                                                                        
12200000304400000630200000000000000000076420876591000000000000000000                                                                                                                                                                                                        
13100000204500006047500000000000000000011868224637000000000000000000                                                                                                                                                                                                        
15000000204300000022640000000081000000254927181549000000003639321028                                                                                                                                                                                                        
32000000103200042862220000000854000000108760930000000000000006181900                                                                                                                                                                                                        
