001800460220140600103423750000002564000001811700354057000000004525417046RICARDO SALAS                                     
11100000103100005417830000000032000000262099955767000000000003846399                                                                                                                                                                                                        
11100000304500000791660000000059000000080091911646000000000163502318                                                                                                                                                                                                        
11200000304500000909060000000212000000193484659236000000000691608463                                                                                                                                                                                                        
12100000303500000043410000000000000000000032134600000000000000000000                                                                                                                                                                                                        
12100000303800000693300000000037000000000982733018000000000001119008                                                                                                                                                                                                        
12100000303900003283200000000000000000027754258974000000000000000000                                                                                                                                                                                                        
12100000304000000492460000000000000000353780750571000000000000000000                                                                                                                                                                                                        
12100000304300000259220000000150000000102898522720000000000862679465                                                                                                                                                                                                        
12100000304400024722380000000000000000243507255932000000000000000000                                                                                                                                                                                                        
12200000303100000047380000000132000000008013790074000000000040920834                                                                                                                                                                                                        
12200000303800000056610000000396000000000424848421000000000006928505                                                                                                                                                                                                        
12200000304300000076800000000113000000002352498055000000000009429837                                                                                                                                                                                                        
12200000304400001130130000000000000000122433050072000000000000000000                                                                                                                                                                                                        
13100000204500006351700000000000000000013997233215000000000000000000                                                                                                                                                                                                        
15000000204300000036440000000139000000254289715275000000002720006917                                                                                                                                                                                                        
31000000103200000000010000000000000000000000017000000000000000000000                                                                                                                                                                                                        
32000000103200044754910000000594000000125782876000000000000015468000                                                                                                                                                                                                        
32000000103500006123380000000000000000009143568500000000000000000000                                                                                                                                                                                                        
32000000303600007959890000000700000000008473759326000000000009907300                                                                                                                                                                                                        
33000000103100000092430000000000000000001820920465000000000000000000                                                                                                                                                                                                        
33000000103200000118790000000000000000000213091764000000000000000000                                                                                                                                                                                                        
33000000303600000062760000000000000000000122803426000000000000000000                                                                                                                                                                                                        
