00180046012014090000000807000000348100000056080000000000053963990000000000000000000000000000RICARDO SALAS                                     
11000011010000000323                                                                                                                                                                                                        
11000012010000000484                                                                                                                                                                                                        
14000011010000001161                                                                                                                                                                                                        
14000012010000002320                                                                                                                                                                                                        
21000011010000000723                                                                                                                                                                                                        
21000012010000001404                                                                                                                                                                                                        
22000011010000001161                                                                                                                                                                                                        
22000012010000002320                                                                                                                                                                                                        
32000013020002693880                                                                                                                                                                                                        
32000014020002693658                                                                                                                                                                                                        
33000013020000008861                                                                                                                                                                                                        
