001800460220160700130456320000004276000002429836272599000000019969988634RICARDO SALAS                                     
11100000103100005132710000000027000000245356510483000000000003375582                                                                                                                                                                                                        
11100000304500000710870000000064000000065393563751000000000743735391                                                                                                                                                                                                        
11200000304500000853050000000237000000248969868516000000000654156326                                                                                                                                                                                                        
12100000303500000033330000000000000000000028418800000000000000000000                                                                                                                                                                                                        
12100000303800001071410000000099000000003220007400000000000003675060                                                                                                                                                                                                        
12100000303900004124220000000000000000041425422524000000000000000000                                                                                                                                                                                                        
12100000304000000780810000000000000000637339464006000000000000000000                                                                                                                                                                                                        
12100000304200002963840000000000000000004727506788000000000000000000                                                                                                                                                                                                        
12100000304300000354430000000061000000131317953947000000001210243718                                                                                                                                                                                                        
12100000304400024695110000000000000000358038287986000000000000000000                                                                                                                                                                                                        
12200000303100000065710000000231000000016127734144000000000083512374                                                                                                                                                                                                        
12200000303800000089860000000514000000000863973272000000000009353833                                                                                                                                                                                                        
12200000304300000097040000000491000000003138720060000000000050100788                                                                                                                                                                                                        
12200000304400001690160000000000000000173977690096000000000000000000                                                                                                                                                                                                        
13100000204500006062150000000000000000015014195286000000000000000000                                                                                                                                                                                                        
15000000204300000046830000000227000000288143530040000000017165527062                                                                                                                                                                                                        
32000000103200048708190000000633000000146432979000000000000021082000                                                                                                                                                                                                        
32000000103500019298120000000000000000030402703900000000000000000000                                                                                                                                                                                                        
32000000303600012501920000001692000000013430276400000000000025226500                                                                                                                                                                                                        
33000000103100000288270000000000000000004990761300000000000000000000                                                                                                                                                                                                        
33000000103200000677810000000000000000001208239700000000000000000000                                                                                                                                                                                                        
33000000103600000210480000000000000000000288465200000000000000000000                                                                                                                                                                                                        
