001800460220150200118890780000003105000002159947770254000000011917801664RICARDO SALAS                                     
11100000103100004082270000000014000000226569145845000000000001698020                                                                                                                                                                                                        
11100000304500000635240000000051000000063925639120000000000041045818                                                                                                                                                                                                        
11200000304500000749200000000166000000225808319826000000000246440576                                                                                                                                                                                                        
12100000303500000011180000000000000000000009253200000000000000000000                                                                                                                                                                                                        
12100000303800000860710000000031000000001856905200000000000000707695                                                                                                                                                                                                        
12100000303900002651400000000000000000023714929978000000000000000000                                                                                                                                                                                                        
12100000304000000594870000000000000000548205169676000000000000000000                                                                                                                                                                                                        
12100000304300000113570000000099000000093333730130000000001179427789                                                                                                                                                                                                        
12100000304400035086620000000000000000283778680411000000000000000000                                                                                                                                                                                                        
12200000303100000054510000000178000000010800510491000000000081785792                                                                                                                                                                                                        
12200000303800000062450000000388000000000491989724000000000006981752                                                                                                                                                                                                        
12200000304300000068640000000490000000002211578994000000000079144128                                                                                                                                                                                                        
12200000304400000620190000000000000000077906089401000000000000000000                                                                                                                                                                                                        
13100000204500006474050000000000000000014466100790000000000000000000                                                                                                                                                                                                        
15000000204300000042180000000225000000409559137858000000010248474394                                                                                                                                                                                                        
32000000103200048624340000000614000000150493058000000000000020913000                                                                                                                                                                                                        
32000000103500007510480000000000000000011329079600000000000000000000                                                                                                                                                                                                        
32000000303600010051260000000849000000010994898000000000000011182700                                                                                                                                                                                                        
33000000103100000202200000000000000000003870514202000000000000000000                                                                                                                                                                                                        
33000000103200000271700000000000000000000415495451000000000000000000                                                                                                                                                                                                        
33000000303600000123720000000000000000000207544357000000000000000000                                                                                                                                                                                                        
