00180046012015120000000882000000526600000072770000000000062990470000000000000000000000373473RICARDO SALAS                                     
11000011020000000343                                                                                                                                                                                                        
11000012020000000539                                                                                                                                                                                                        
14000011010000001520                                                                                                                                                                                                        
14000012010000003746                                                                                                                                                                                                        
21000011010000000608                                                                                                                                                                                                        
21000012010000001403                                                                                                                                                                                                        
22000011010000001520                                                                                                                                                                                                        
22000012010000003746                                                                                                                                                                                                        
31000014020000059152                                                                                                                                                                                                        
32000013020002808435                                                                                                                                                                                                        
32000014020003423517                                                                                                                                                                                                        
33000013020000007943                                                                                                                                                                                                        
41000015040000373473                                                                                                                                                                                                        
