00180046012015020000000844000000380200000059720000000000057096260000000000000000000000000000RICARDO SALAS                                     
11000011010000000328                                                                                                                                                                                                        
11000012010000000516                                                                                                                                                                                                        
14000011010000001155                                                                                                                                                                                                        
14000012010000002647                                                                                                                                                                                                        
21000011010000000744                                                                                                                                                                                                        
21000012010000001426                                                                                                                                                                                                        
22000011010000001155                                                                                                                                                                                                        
22000012010000002647                                                                                                                                                                                                        
31000014020000060045                                                                                                                                                                                                        
32000013020002350561                                                                                                                                                                                                        
32000014020003290075                                                                                                                                                                                                        
33000013020000008945                                                                                                                                                                                                        
