001800460220150600138518340000003749000002197024736214000000008285522972RICARDO SALAS                                     
11100000103100005374000000000042000000237530674993000000000069195790                                                                                                                                                                                                        
11100000304500000727010000000061000000062963565321000000000585345170                                                                                                                                                                                                        
11200000304500000859410000000221000000229422687240000000000788702225                                                                                                                                                                                                        
12100000303500000014730000000000000000000011336200000000000000000000                                                                                                                                                                                                        
12100000303800000802140000000044000000001873434800000000000001269473                                                                                                                                                                                                        
12100000303900003157630000000000000000029208174100000000000000000000                                                                                                                                                                                                        
12100000304000000835660000000000000000520154465928000000000000000000                                                                                                                                                                                                        
12100000304200011616740000000000000000001379331200000000000000000000                                                                                                                                                                                                        
12100000304300000287050000000118000000159266460445000000001264476381                                                                                                                                                                                                        
12100000304400034824070000000000000000287130727056000000000000000000                                                                                                                                                                                                        
12200000303100000056400000000195000000013974775144000000000097541159                                                                                                                                                                                                        
12200000303800000071410000000466000000000598919470000000000008583484                                                                                                                                                                                                        
12200000304300000090860000000483000000002749356505000000000049140765                                                                                                                                                                                                        
12200000304400001436240000000000000000146698444050000000000000000000                                                                                                                                                                                                        
13100000204500006295060000000000000000014383146304000000000000000000                                                                                                                                                                                                        
15000000204300000040190000000208000000308770426257000000005381589425                                                                                                                                                                                                        
32000000103200052100540000000782000000152633072001000000000024560000                                                                                                                                                                                                        
32000000103500009648490000000000000000013963005300000000000000000000                                                                                                                                                                                                        
32000000303600009458020000001129000000009970113300000000000015119100                                                                                                                                                                                                        
33000000103100000234980000000000000000003477444900000000000000000000                                                                                                                                                                                                        
33000000103200000418210000000000000000000595112200000000000000000000                                                                                                                                                                                                        
33000000303600000169500000000000000000000270063500000000000000000000                                                                                                                                                                                                        
