001800460220140300103752170000001809000001985723705027000000004682829813RICARDO SALAS                                     
11100000103100005639540000000021000000313405893538000000000002569034                                                                                                                                                                                                        
11100000304500000764490000000079000000091054545869000000000133672529                                                                                                                                                                                                        
11200000304500000897170000000215000000224859173351000000000437214355                                                                                                                                                                                                        
12100000303500000043780000000000000000000032471985000000000000000000                                                                                                                                                                                                        
12100000303800000763130000000042000000001065909342000000000001265103                                                                                                                                                                                                        
12100000303900003193900000000000000000030922483534000000000000000000                                                                                                                                                                                                        
12100000304000000448980000000000000000348320295654000000000000000000                                                                                                                                                                                                        
12100000304300000151100000000128000000134370266515000000002293799573                                                                                                                                                                                                        
12100000304400024625140000000000000000237870868715000000000000000000                                                                                                                                                                                                        
12200000303100000049300000000160000000004504412190000000000052931672                                                                                                                                                                                                        
12200000303800000058990000000380000000000444863467000000000006324839                                                                                                                                                                                                        
12200000304300000072420000000077000000001994223694000000000077564131                                                                                                                                                                                                        
12200000304400000834210000000000000000105187404350000000000000000000                                                                                                                                                                                                        
13100000204500006203090000000000000000013711145382000000000000000000                                                                                                                                                                                                        
15000000204300000056120000000151000000316070549140000000001664589577                                                                                                                                                                                                        
32000000103200047540730000000556000000142552866000000000000012899000                                                                                                                                                                                                        
32000000103500003509020000000000000000009139946600000000000000000000                                                                                                                                                                                                        
32000000303600008830360000000000000000009323035811000000000000000000                                                                                                                                                                                                        
33000000103100000028410000000000000000000808981344000000000000000000                                                                                                                                                                                                        
33000000103200000020380000000000000000000041792198000000000000000000                                                                                                                                                                                                        
33000000303600000021910000000000000000000042576348000000000000000000                                                                                                                                                                                                        
