001800460220141100112094970000003496000002074269531951000000007392886991RICARDO SALAS                                     
11100000103100005687410000000043000000296909191456000000000002872216                                                                                                                                                                                                        
11100000304500000831830000000076000000090740776567000000000278233334                                                                                                                                                                                                        
11200000304500000886780000000291000000183293087031000000000934908954                                                                                                                                                                                                        
12100000303500000012570000000000000000000010495000000000000000000000                                                                                                                                                                                                        
12100000303800000838410000000401000000001769047258000000000006617444                                                                                                                                                                                                        
12100000303900003199320000000000000000028822166523000000000000000000                                                                                                                                                                                                        
12100000304000000613630000000000000000419633293922000000000000000000                                                                                                                                                                                                        
12100000304300000328240000000141000000130675672343000000001422349647                                                                                                                                                                                                        
12100000304400022923960000000000000000262630349945000000000000000000                                                                                                                                                                                                        
12200000303100000053390000000167000000012350503361000000000081856083                                                                                                                                                                                                        
12200000303800000057600000000355000000000430079934000000000005640364                                                                                                                                                                                                        
12200000304300000083490000000234000000002086973991000000000019648355                                                                                                                                                                                                        
12200000304400001465030000000000000000170651517925000000000000000000                                                                                                                                                                                                        
13100000204500006418860000000000000000014219316330000000000000000000                                                                                                                                                                                                        
15000000204300000045730000000174000000292306245465000000004613280494                                                                                                                                                                                                        
32000000103200049912990000000621000000141276657000000000000017985000                                                                                                                                                                                                        
32000000103500009005440000000000000000013389977600000000000000000000                                                                                                                                                                                                        
32000000303600009243400000000993000000009531866800000000000009495100                                                                                                                                                                                                        
33000000103100000168240000000000000000003026653800000000000000000000                                                                                                                                                                                                        
33000000103200000222030000000000000000000348076900000000000000000000                                                                                                                                                                                                        
33000000303600000096620000000000000000000167582800000000000000000000                                                                                                                                                                                                        
