001800460220140800117108350000003027000002517985304337000000014430904370RICARDO SALAS                                     
11100000103100005796810000000016000000333899444021000000000002265608                                                                                                                                                                                                        
11100000304500000824210000000056000000088438705335000000000066420205                                                                                                                                                                                                        
11200000304500000949070000000190000000254503818467000000001101692352                                                                                                                                                                                                        
12100000303500000050990000000000000000000038314600000000000000000000                                                                                                                                                                                                        
12100000303800000764250000000024000000001139470530000000000000435996                                                                                                                                                                                                        
12100000303900003496820000000000000000034364798668000000000000000000                                                                                                                                                                                                        
12100000304000000747760000000000000000561260646609000000000000000000                                                                                                                                                                                                        
12100000304300000344410000000138000000123230987598000000005348988148                                                                                                                                                                                                        
12100000304400028159110000000000000000341964756156000000000000000000                                                                                                                                                                                                        
12200000303100000067450000000183000000013407188443000000000063768468                                                                                                                                                                                                        
12200000303800000052650000000331000000000400185078000000000006012686                                                                                                                                                                                                        
12200000304300000073180000000460000000001987693430000000000039661031                                                                                                                                                                                                        
12200000304400001230590000000000000000142922034734000000000000000000                                                                                                                                                                                                        
13100000204500006390590000000000000000014100919017000000000000000000                                                                                                                                                                                                        
15000000204300000051690000000181000000430098274825000000007772868882                                                                                                                                                                                                        
32000000103200050630280000000603000000151918066000000000000017167000                                                                                                                                                                                                        
32000000103500007099210000000000000000010940850370000000000000000000                                                                                                                                                                                                        
32000000303600010053180000000845000000010893559000000000000011623994                                                                                                                                                                                                        
33000000103100000106850000000000000000002099531173000000000000000000                                                                                                                                                                                                        
33000000103200000142510000000000000000000243867862000000000000000000                                                                                                                                                                                                        
33000000303600000076740000000000000000000132192421000000000000000000                                                                                                                                                                                                        
