00180046012014030000000803000001249800000048900000000000051261720000000000000000000000000000RICARDO SALAS                                     
11000011010000000306                                                                                                                                                                                                        
11000012010000000497                                                                                                                                                                                                        
14000011010000000947                                                                                                                                                                                                        
14000012010000001785                                                                                                                                                                                                        
21000011010000000712                                                                                                                                                                                                        
21000012010000001446                                                                                                                                                                                                        
22000011010000000947                                                                                                                                                                                                        
22000012010000001785                                                                                                                                                                                                        
31000014020000061025                                                                                                                                                                                                        
32000013020002538498                                                                                                                                                                                                        
32000014020002522229                                                                                                                                                                                                        
33000013020000004420                                                                                                                                                                                                        
