00180046012014100000000831000000360100000057240000000000056631810000000000000000000000000000RICARDO SALAS                                     
11000011010000000326                                                                                                                                                                                                        
11000012010000000505                                                                                                                                                                                                        
14000011010000001112                                                                                                                                                                                                        
14000012010000002489                                                                                                                                                                                                        
21000011010000000723                                                                                                                                                                                                        
21000012010000001400                                                                                                                                                                                                        
22000011010000001112                                                                                                                                                                                                        
22000012010000002489                                                                                                                                                                                                        
31000014020000060396                                                                                                                                                                                                        
32000013020002560208                                                                                                                                                                                                        
32000014020003032088                                                                                                                                                                                                        
33000013020000010489                                                                                                                                                                                                        
