00180046012015110000000878000000516300000075820000000000062654450000000000000000000000383956RICARDO SALAS                                     
11000011010000000337                                                                                                                                                                                                        
11000012010000000541                                                                                                                                                                                                        
14000011010000001506                                                                                                                                                                                                        
14000012010000003657                                                                                                                                                                                                        
21000011010000000744                                                                                                                                                                                                        
21000012010000001675                                                                                                                                                                                                        
22000011010000001506                                                                                                                                                                                                        
22000012010000003657                                                                                                                                                                                                        
31000014020000059204                                                                                                                                                                                                        
32000013020002798623                                                                                                                                                                                                        
32000014020003398006                                                                                                                                                                                                        
33000013020000009612                                                                                                                                                                                                        
41000015040000383956                                                                                                                                                                                                        
