00180046012014010000000807000000715200000047170000000000050201510000000000000000000000000000RICARDO SALAS                                     
11000011010000000302                                                                                                                                                                                                        
11000012010000000505                                                                                                                                                                                                        
14000011010000000850                                                                                                                                                                                                        
14000012010000001654                                                                                                                                                                                                        
21000011010000000736                                                                                                                                                                                                        
21000012010000001477                                                                                                                                                                                                        
22000011010000000850                                                                                                                                                                                                        
22000012010000001654                                                                                                                                                                                                        
31000013020000000119                                                                                                                                                                                                        
31000014020000061097                                                                                                                                                                                                        
32000013020002281490                                                                                                                                                                                                        
32000014020002677445                                                                                                                                                                                                        
