001800460220140500112058710000003233000001954060750669000000007251882242RICARDO SALAS                                     
11100000103100005889070000000038000000301429083473000000000123716322                                                                                                                                                                                                        
11100000304500000804690000000055000000085971941069000000000084833732                                                                                                                                                                                                        
11200000304500000951040000000173000000211120362420000000000376559756                                                                                                                                                                                                        
12100000303500000040390000000000000000000030308416000000000000000000                                                                                                                                                                                                        
12100000303800000756470000000035000000001088992672000000000000830300                                                                                                                                                                                                        
12100000303900003480600000000000000000029807998585000000000000000000                                                                                                                                                                                                        
12100000304000000513010000000000000000395085078547000000000000000000                                                                                                                                                                                                        
12100000304300000216330000000147000000093008639920000000001101743807                                                                                                                                                                                                        
12100000304400029829170000000000000000250380652789000000000000000000                                                                                                                                                                                                        
12200000303100000048410000000166000000007517470807000000000064631845                                                                                                                                                                                                        
12200000303800000059230000000380000000000443090070000000000006120712                                                                                                                                                                                                        
12200000304300000072960000000750000000002488413737000000000071651486                                                                                                                                                                                                        
12200000304400001044640000000000000000111315722966000000000000000000                                                                                                                                                                                                        
13100000204500006358040000000000000000014076794158000000000000000000                                                                                                                                                                                                        
15000000204300000044350000000143000000289904943154000000005394840851                                                                                                                                                                                                        
31000000103200000000180000000000000000000000777900000000000000000000                                                                                                                                                                                                        
32000000103200046212940000000579000000138626401100000000000016342000                                                                                                                                                                                                        
32000000103500007076580000000000000000010872900630000000000000000000                                                                                                                                                                                                        
32000000303600008454060000000767000000008908346300000000000010611431                                                                                                                                                                                                        
33000000103100000076440000000000000000001721913124000000000000000000                                                                                                                                                                                                        
33000000103200000083300000000000000000000161105702000000000000000000                                                                                                                                                                                                        
33000000303600000046810000000000000000000099813130000000000000000000                                                                                                                                                                                                        
