001800460220110800084689120000009651000001643232377895000000011484184764RICARDO SALAS                                     
11100000103100005540900000000025000000182810511123000000000008973060                                                                                                                                                                                                        
11100000304500000583970000000098000000062691067724000000000176016974                                                                                                                                                                                                        
11200000304500000944740000000276000000227422865719000000000689200409                                                                                                                                                                                                        
12100000303800000353780000007425000000000710550500000000000016592200                                                                                                                                                                                                        
12100000303900001357200000000000000000008405037290000000000000000000                                                                                                                                                                                                        
12100000304000000230130000000000000000357422733340000000000000000000                                                                                                                                                                                                        
12100000304300000145930000000188000000104186533050000000004406682106                                                                                                                                                                                                        
12100000304400023437290000000000000000181796539158000000000000000000                                                                                                                                                                                                        
12200000303100000026420000000119000000002392022148000000000045554284                                                                                                                                                                                                        
12200000303800000037600000000281000000000262004151000000000004167456                                                                                                                                                                                                        
12200000304300000041070000000104000000001001363135000000000004967603                                                                                                                                                                                                        
12200000304400000652170000000000000000059319173290000000000000000000                                                                                                                                                                                                        
13100000204500005483760000000000000000011451518949000000000000000000                                                                                                                                                                                                        
15000000204300000030160000000138000000326897136318000000006106579672                                                                                                                                                                                                        
31000000103200001291400000000000000000003106855000000000000000000000                                                                                                                                                                                                        
32000000103200044532600000000997000000113356467000000000000025451000                                                                                                                                                                                                        
