00180046012011010000001379000000000000000019210000000000034361830000000000000000000000000000VICTOR BRINGAS                                    
11000011010000000308                                                                                                                                                                                                        
11000012010000001071                                                                                                                                                                                                        
21000015040000001921                                                                                                                                                                                                        
31000013010000000487                                                                                                                                                                                                        
31000013020000000485                                                                                                                                                                                                        
31000014020000079289                                                                                                                                                                                                        
32000013020002002696                                                                                                                                                                                                        
32000014020001353226                                                                                                                                                                                                        
