00180046012015070000000852000000451200000067520000000000060941080000000000000000000000270971RICARDO SALAS                                     
11000011010000000321                                                                                                                                                                                                        
11000012010000000531                                                                                                                                                                                                        
14000011010000001355                                                                                                                                                                                                        
14000012010000003157                                                                                                                                                                                                        
21000011010000000715                                                                                                                                                                                                        
21000012010000001525                                                                                                                                                                                                        
22000011010000001355                                                                                                                                                                                                        
22000012010000003157                                                                                                                                                                                                        
31000014020000059555                                                                                                                                                                                                        
32000013020002808438                                                                                                                                                                                                        
32000014020003217336                                                                                                                                                                                                        
33000013020000008779                                                                                                                                                                                                        
41000015040000270971                                                                                                                                                                                                        
